:100000000C943D070C946E070C946E070C946E07CD
:100010000C946E070C946E070C946E070C946E078C
:100020000C946E070C946E070C946E070C946E077C
:100030000C946E070C946E070C946E070C946E076C
:100040000C946E070C946E070C946E070C946E075C
:100050000C946E070C946E070C946E070C94472555
:100060000C946E070C94BD0F0C94E50E0C946E0767
:100070000C946E070C946E070C946E070C946E072C
:100080000C946E070C946E070C946E070C946E071C
:100090000C948A0F0C94A60E0C946E070C949F1C63
:1000A0000C946E070C946E070C946E070C946E07FC
:1000B0000C946E070C946E070C946E070C946E07EC
:1000C0000C946E070C946E070C946E070C94570FEB
:1000D0000C94670E0C946E070C94240F0C94280E4D
:1000E0000C946E078A188D1880188418C4189118FB
:1000F00095189B189F18A318A918AD18B118C41803
:10010000B718BB18BF180C9491180C941A180C94BB
:100110009A0A0C94AF120C940C080C9483070C945C
:10012000AD070C9470070C94EB170C94A3180C9467
:100130006B2F0C947A0A0C949B180C94BF180C9497
:10014000F5300C947C090C94C4180C9428110C9470
:100150004D090C94A2170C9490170C94B7180C949A
:100160008A180C94B60A0C94B6170C9491170C9438
:1001700084180C9493170C9495180C945D090C94A6
:100180008D180C9429140C94B1180C942D0A0C940D
:10019000080B0C94BB180C94AD180C9469090C94C2
:1001A00080180C94BE170C946F0A0C94E00A0C94FF
:1001B00075090C9492170C94A9180C949F180C9420
:1001C000411E11007F96290001007F9628003A0108
:1001D00055C0021010C10141C50400228040360103
:1001E00068B00100B102B011B40102B60302023BD3
:1001F000B701C63A0155F704A9512C82C0020D0D72
:10020000C1024300C20100C50400480048B4010017
:10021000B60302023BE00F0F211C0B0E0849983871
:10022000091103141000E10F0F2F2B0C0E06477657
:1002300037071104231E00B00100B30402000000C0
:10024000B40100D003074218D103000710D2020105
:1002500002D3020102D4020102C005123B000211C6
:10026000C103101088C50103C60102C80C00323654
:10027000450616377577540C00CC0100F6030101D2
:1002800000CF03008130ED0464031281E803851080
:1002900078CB05392C003402F70120EA020000B0C7
:1002A0000100B102001BB40100C00121C10111C550
:1002B000023F3CC701B5360148F20100260101E0CA
:1002C0000F0F26240B0E0954A8460C17090F070020
:1002D000E10F00191B0410072A47390306063038BE
:1002E0000F360100B80101C0010EB00100C10410B9
:1002F000100202C006003500000102C50104D2024E
:100300000104CA0100EA0180B903FF83577F967F89
:1003100096B60125C0065050013C1E08B4070240A5
:10032000002A2A0D787F01F20B1616030808080828
:1003300010041616FD03110235B2050C0C00333300
:10034000B70135BB012BC00104C20201FFC301117B
:10035000C40120C6010FD002A4A1E00ED000050EFA
:10036000150D3743470915121619E10ED000050D7A
:100370000C062D44400E1C1816193A01557F0AB080
:100380000103E2013FC00122E20100B00100C0010F
:100390000AB00100000000000000000000000000A2
:1003A00000000000FFFF0F000004006208000808C2
:1003B0000003000C01030B5A020306090303171084
:1003C0000403002305030017060309630703090C50
:1003D00008030C100903322210001600110001015D
:1003E0001200000013000100000130030101370278
:1003F0000301000D800200610201B0C1FFFF320065
:10040000010000010200000103003010090001009A
:100410000C000000900000800F000000100200009F
:100420001102EF001202000013028F01000500000C
:100430000105000002055F00010401000404000042
:10044000FFFF320007000001FFFF32000002000042
:100450000102000000000000000000000000000099
:1004600000000100A4000100FFFF0A006000002757
:100470000800080830001402310015373200040665
:100480003300160E340011223500001536000785A2
:1004900037000714380003143900200090001500BD
:1004A0001000100411003702290046002A004600FF
:1004B000070000001200890113000011FFFF9600E1
:1004C0001200B90101000001020000020300301017
:1004D000090001000A0000000D0000000E003000BD
:1004E000610001006A00000080000000810000003F
:1004F00082005F009200000193000107FFFF50009F
:1005000007000001E500F078010000010200000290
:10051000030030100400000005000000080007027E
:10052000090000000A0000000C0000000D0000009F
:100530000F00000010000000110007001200000072
:100540001300000007000100FFFFC8001000901614
:1005500011002702FFFF320012000D00FFFF3200E2
:100560001300001229000A002B000D00FFFF3200CB
:1005700020000000210000003000000031000404D1
:100580003200030035000504360008083700070470
:1005900038000303390007073C0004053D00080844
:1005A00060000027610001006A0000008000000078
:1005B0008100000082000000830000008400000031
:1005C0008500000090001000920000000700330139
:1005D000E5000080000001000100000102000007AA
:1005E00003003010040000000800020209000000AF
:1005F0000A0000000C0000000D0000000F000000C9
:10060000100000001100070012000000130000009D
:10061000FFFF32001000B01711000700FFFF0A00B3
:1006200012003A01FFFF0A001300001A29000C0013
:10063000FFFF0A0030000000310005053200040011
:1006400035000600360007073700050138000200B4
:10065000390007073C0004073D000708600000A7B9
:10066000610001006A00000021000000200000007D
:100670008000000081000000820000008300000074
:10068000840000008500000090001000920000002F
:1006900093000300950010019700000098000000EF
:1006A00007007301FFFF3200FF000100F3000800A4
:1006B00000000100010000010200000703003010EB
:1006C00008000203090000001000000011000700EC
:1006D0001200000013000000FFFF32001000B014F1
:1006E000FFFF0A0011000700FFFF0A0012008E0042
:1006F0001300000C29001500FFFF0A003000000065
:100700003100070132000000350003023600020408
:100710003700000038000702390000003C000302E7
:100720003D000304600000A7610001009000290063
:1007300007003301FFFF3200150030009A0010005F
:10074000110020001000283412000200130038109D
:10075000FFFF280012001200FFFF280010002034C5
:1007600013004530FFFF4600300000003100020456
:100770003200070333000403340004003500010491
:100780003600070737000503380010063900100649
:1007900001000001020000030300301008000808F7
:1007A0000A000800600000276100010090003E017F
:1007B0009200000193000001A0000030A30010008F
:1007C0000700010007002100070023000700330095
:1007D0000700330111001A001200213113006C00D0
:1007E0001400494210000008FFFF0A0011001A011E
:1007F000FFFF0A0011001A03FFFF0A0011001A0789
:10080000FFFF0A0011001A0FFFFF0A0011003A0F44
:10081000FFFF1E000100280102000001030030104C
:1008200007001210080003030B0000110C00000069
:100830000F000118150020005000010151000306AF
:100840005200080453000000540005065500060439
:10085000560003035700030358001000590000100E
:1008600007001200FFFF2800070013000700170011
:1008700000000000003E5B4F5B3E3E6B4F6B3E1C3A
:100880003E7C3E1C183C7E3C181C577D571C1C5E51
:100890007F5E1C00183C1800FFE7C3E7FF00182428
:1008A0001800FFE7DBE7FF30483A060E26297929D2
:1008B00026407F050507407F05253F5A3CE73C5A07
:1008C0007F3E1C1C08081C1C3E7F14227F22145FE4
:1008D0005F005F5F06097F017F006689956A60603F
:1008E00060606094A2FFA29408047E040810207E39
:1008F000201008082A1C08081C2A08081E101010BE
:10090000100C1E0C1E0C30383E3830060E3E0E0603
:10091000000000000000005F000000070007001456
:100920007F147F14242A7F2A122313086462364915
:100930005620500008070300001C224100004122FD
:100940001C002A1C7F1C2A08083E08080080703002
:100950000008080808080000606000201008040271
:100960003E5149453E00427F400072494949462177
:1009700041494D331814127F1027454545393C4AEB
:100980004949314121110907364949493646494902
:10099000291E00001400000040340000000814224A
:1009A00041141414141400412214080201590906B8
:1009B0003E415D594E7C1211127C7F494949363EB9
:1009C000414141227F4141413E7F494949417F099F
:1009D0000909013E414151737F0808087F00417FAA
:1009E00041002040413F017F081422417F404040A8
:1009F000407F021C027F7F0408107F3E4141413E40
:100A00007F090909063E4151215E7F0919294626C1
:100A10004949493203017F01033F4040403F1F20C5
:100A200040201F3F4038403F63140814630304789C
:100A300004036159494D43007F41414102040810BC
:100A400020004141417F04020102044040404040F7
:100A5000000307080020545478407F284444383865
:100A600044444428384444287F38545454180008D7
:100A70007E090218A4A49C787F0804047800447DB1
:100A800040002040403D007F1028440000417F404E
:100A9000007C047804787C080404783844444438A2
:100AA000FC1824241818242418FC7C080404084882
:100AB0005454542404043F44243C4040207C1C20D3
:100AC00040201C3C4030403C44281028444C90902E
:100AD000907C4464544C4400083641000000770088
:100AE00000004136080002010204023C2623263C95
:100AF0001EA1A161123A4040207A38545455592120
:100B00005555794122545478422155547840205407
:100B10005579400C1E527212395555555939545455
:100B2000545939555454580000457C410002457DC4
:100B3000420001457C407D1211127DF0282528F0ED
:100B40007C545545002054547C547C0A097F49321A
:100B5000494949323A4444443A324A4848303A4191
:100B600041217A3A42402078009DA0A07D3D42423A
:100B7000423D3D4040403D3C24FF2424487E4943C3
:100B8000662B2FFC2F2BFF0929F620C0887E090336
:100B900020545479410000447D413048484A32385D
:100BA0004040227A007A0A0A727D0D19317D262989
:100BB000292F28262929292630484D402038080881
:100BC000080808080808382F10C8ACBA2F102834B5
:100BD000FA00007B000008142A142222142A1408A8
:100BE0005500550055AA55AA55AAFF55FF55FF00B7
:100BF0000000FF00101010FF00141414FF0010106C
:100C0000FF00FF1010F010F0141414FC001414F77F
:100C100000FF0000FF00FF1414F404FC141417106C
:100C20001F10101F101F1414141F00101010F000BC
:100C30000000001F101010101F10101010F01000F6
:100C40000000FF101010101010101010FF10000006
:100C500000FF140000FF00FF00001F10170000FC41
:100C600004F414141710171414F404F40000FF0013
:100C7000F714141414141414F700F714141417149C
:100C800010101F101F141414F4141010F010F000A2
:100C9000001F101F0000001F14000000FC140000C3
:100CA000F010F01010FF10FF141414FF14101010A7
:100CB0001F00000000F010FFFFFFFFFFF0F0F0F05A
:100CC000F0FFFFFF0000000000FFFF0F0F0F0F0FEE
:100CD0003844443844FC4A4A4A347E02020606023A
:100CE0007E027E0263554941633844443C04407EA1
:100CF000201E2006027E020299A5E7A5991C2A491A
:100D00002A1C4C7201724C304A4D4D3030487848A4
:100D100030BC625A463D3E494949007E0101017E90
:100D20002A2A2A2A2A44445F444440514A444040E3
:100D3000444A51400000FF0103E080FF0000080822
:100D40006B6B083612362436060F090F06000018A2
:100D5000180000001010003040FF0101001F0101C9
:100D60001E00191D1712003C3C3C3C000000000016
:100D70000000090A02080B0C0D070603040100001D
:100D80000000000000000000000000000000000063
:100D900000000000000000000000000011100F0023
:100DA0000000000000000000000000000000000043
:100DB0000000000000000102102020080810204060
:100DC000102040800201020108040201010204080F
:100DD000102040808040201008040201800402019D
:100DE00080402010080402010804020101020408E6
:100DF00010204080010204081020408000002200E2
:100E0000250028002B002E003100340002010000D4
:100E1000050108010B010505050507050808080877
:100E2000020202020A0A0808040404040101010182
:100E3000010101010303030303030303040707077D
:100E40000C0C0C0C0C0C0C0C020202020606060622
:100E5000060606060B0B0B0B0B0B0B0B0000210001
:100E6000240027002A002D0030003300010100007B
:100E7000040107010A016B2FF53011241FBECFEFCB
:100E8000D1E2DEBFCDBF00E00CBF12E0A0E0B2E0D7
:100E9000EEE0FCE600E00BBF02C007900D92A03828
:100EA000B107D9F726E0A0E8B2E001C01D92AA364A
:100EB000B207E1F717E0CCE3D7E000E006C02197E6
:100EC0000109802FFE010E94D935CB33D10780E084
:100ED0000807A9F70E9491250C942C310C9400006E
:100EE000EF92FF920F931F93DC01ED91FC91048C24
:100EF000F58DE02D780101E010E019951F910F911B
:100F0000FF90EF900895EF92FF920F931F93DC01F3
:100F1000ED91FC91048CF58DE02D7801890121E0A3
:100F200030E019951F910F91FF90EF90089508956B
:100F3000FC016370658B84819581268137816130E6
:100F400039F0633029F091878087338722870895AD
:100F5000318720879387828708956F927F928F923F
:100F60009F92AF92BF92CF92DF92EF92FF920F9338
:100F70001F93CF93DF93EC014B015A0169013801B4
:100F8000E881F9810680F781E02D1995E881F981E2
:100F90000684F785E02D87019601A501B401CE01F5
:100FA0001995A501460D571D41505109E881F98158
:100FB0000684F785E02D9601B401CE011995E881EC
:100FC000F9810484F585E02D9301A501B401CE01DA
:100FD0001995C80CD91CB60161507109E881F981D5
:100FE0000484F585E02D9301A501CE011995E881D2
:100FF000F9810288F389E02DCE01DF91CF911F9115
:101000000F91FF90EF90DF90CF90BF90AF909F90A7
:101010008F907F906F9019948F929F92AF92BF9212
:10102000CF92DF92EF92FF920F931F93CF93DF93B4
:101030004C016B015A01E901DC01ED91FC91621751
:10104000730781F40417150724F48B2D5801042F1E
:10105000182F0A191B0998012F5F3F4F008CF18D43
:10106000E02D12C04017510709F52617370724F461
:101070008D2D6901C62FD82F9E012C193D092F5F98
:101080003F4F028CF38DE02D8701A501B601C4010D
:101090001995DF91CF911F910F91FF90EF90DF9005
:1010A000CF90BF90AF909F908F9008950680F7816A
:1010B000E02D1995D401ED91FC910088F189E02D86
:1010C0009E01A501B601C4011995D401ED91FC91D1
:1010D0000288F389E02DC401DF91CF911F910F9118
:1010E000FF90EF90DF90CF90BF90AF909F908F9048
:1010F0001994EF92FF920F931F93DC011A960D91B2
:101100001C911B9718962D913C911997ED91FC918C
:10111000048CF58DE02D7B0140E050E060E070E054
:1011200019951F910F91FF90EF9008954F925F9244
:101130006F927F928F929F92AF92BF92CF92DF92E7
:10114000EF92FF920F931F93CF93DF936C012B01CC
:101150005A0139014801DC01ED91FC910680F781CB
:10116000E02D1995E201640C751CD601ED91FC91FE
:10117000C615D7055CF40484F585E02D870194013C
:10118000A501BE01C60119952196EFCF0288F3890A
:10119000E02DC601DF91CF911F910F91FF90EF904D
:1011A000DF90CF90BF90AF909F908F907F906F9087
:1011B0005F904F9019948F929F92AF92BF92CF926F
:1011C000DF92EF92FF920F931F93CF93DF93EC0187
:1011D0005B014A016901E881F9810680F781E02D10
:1011E000199595012C0D3D1D21503109E881F9819A
:1011F0000088F189E02D78018401A401B501CE01B8
:101200001995E881F9810288F389E02DCE01DF91FB
:10121000CF911F910F91FF90EF90DF90CF90BF90F3
:10122000AF909F908F9019948F929F92AF92BF92A0
:10123000CF92DF92EF92FF920F931F93CF93DF93A2
:10124000EC015B014A0169017801E881F9810680BE
:10125000F781E02D1995C80CD91C860101501109A0
:10126000E881F9810088F189E02D9501A401B5019B
:10127000CE011995E881F9810288F389E02DCE012C
:10128000DF91CF911F910F91FF90EF90DF90CF9062
:10129000BF90AF909F908F901994EF92FF920F9311
:1012A0001F93DC01ED91FC91048CF58DE02D1995D7
:1012B0001F910F91FF90EF9008950F931F93DC0102
:1012C000ED91FC91028CF38DE02D19951F910F91FA
:1012D00008950F931F93DC01ED91FC91008CF18D2B
:1012E000E02D19951F910F910895DC01ED91FC916E
:1012F0000480F581E02D19942F923F924F925F92D6
:101300006F927F928F929F92AF92BF92CF92DF9215
:10131000EF92FF920F931F93CF93DF9300D000D0F3
:10132000CDB7DEB72C017E836D836A015901C801F8
:10133000FC82EB824801841A950A97FE03C09194BF
:101340008194910835012D813E81621A730A77FEDE
:1013500003C0719461947108681479045CF43A2DA7
:101360002B2D5C01832F922F3D812E81DE82CD8239
:10137000C32ED22EAD81BE81AA16BB065CF43C2DD5
:101380002D2D6C01832F922F3D812E81BE82AD8247
:10139000A32EB22E85012D813E81021B130B1C0151
:1013A0002C183D0837FE03C0319421943108780190
:1013B00017FF03C03FEFE31AF30AF594E794C8164A
:1013C000D9062CF08FEF9FEF9A83898304C0A1E0A8
:1013D000B0E0BA83A9832D813E81A216B30624F121
:1013E000D201ED91FC910084F185E02D2B813C81AF
:1013F0006814790424F44D815E81B60103C0A6010E
:101400006D817E81C2011995E218F308F7FE06C0CE
:1014100029813A81C20ED31EE00EF11E8D819E817C
:1014200001969E838D83D7CF26960FB6F894DEBFA4
:101430000FBECDBFDF91CF911F910F91FF90EF9025
:10144000DF90CF90BF90AF909F908F907F906F90E4
:101450005F904F903F902F9008950F931F93CF93DD
:10146000DF93FC01A685B7858D01005C1F4FE80165
:101470008881998101968F739927AD014E5B5F4FEB
:10148000EA012881398128173907D1F3E801288139
:101490003981A20FB31F6C93A685B785A05CBF4F9F
:1014A00011969C938E93A689B7892C9181E090E048
:1014B000078C02C0880F991F0A94E2F7822B8C9345
:1014C00081E081A30488F589E02D80818064808398
:1014D00081E090E0DF91CF911F910F910895FC0181
:1014E00081A1882329F0A489B5898C9186FFFBCF3F
:1014F00011A20895FC01A485B585FD01E05CFF4FB4
:10150000208131813296808191812817390779F0C5
:1015100080819181A80FB91F8C91208131812F5F2B
:101520003F4F2F7333273183208390E008958FEF4F
:101530009FEF0895DC011C96ED91FC911D97DF0152
:10154000A05CBF4F2D913C91119712968D919C916B
:1015500011972817390739F08D919C91E80FF91FE1
:10156000808190E008958FEF9FEF0895FC0124851E
:101570003585F901E05CFF4F8081918132962081B1
:101580003181821B930B8F7399270895FB01E05CD7
:10159000FF4F20813181DB01AE5BBF4F4D915C91EC
:1015A0002F5F3F4F2F7333274217530741F040817E
:1015B0005181DB01A40FB51F8C93318320830895E3
:1015C000CF92DF92EF92FF920F931F93CF93DF930F
:1015D0006C01EB017B01E40EF51E00E010E0CE157E
:1015E000DF0561F06991D601ED91FC910190F081E8
:1015F000E02DC6011995080F191FF1CFC801DF9121
:10160000CF911F910F91FF90EF90DF90CF900895B1
:10161000AF92BF92CF92EF92FF920F931F93CF930F
:10162000DF93EC01262F888D998D009709F040C03B
:101630006A3059F41D861C862C898E859F8538E07A
:10164000239F800D911D112441C06D3009F4AAC063
:101650008E898823C1F03C898C859D8546E0349F26
:10166000800D911D112448855985481759075CF450
:101670001D861C868E859F8548E0349F800D911DB8
:1016800011249F878E87EA88FB88088919894E85EF
:101690005F856C857D85CC88CE010E94661A2C8979
:1016A0008C859D8536E0239F800D911D112442C0BD
:1016B0006A3079F41D861C862C89FC013696E491EB
:1016C0008E859F852E9F800D911D11249F878E876B
:1016D00069C06D3009F466C0FC013496349163171B
:1016E00008F460C03196E491E61708F45BC0FC0191
:1016F000329665917491422F50E0431B510937E0B7
:10170000349F5001359FB00C1124A60EB71EF50171
:10171000329634913196E491332311F0E1110DC0EA
:10172000F5013496E4912C898C859D85E29F800D8E
:10173000911D11249D878C8735C0F5013596449104
:101740005E89552311F16C89E32FF0E0E40FF11D60
:1017500047FDFA956E9FD0016F9FB00D11244C8507
:101760005D854A0F5B1FE885F985E417F5076CF482
:101770001D861C86FC013696E4918E859F856E9FA2
:10178000800D911D11249F878E87EA88FB88088928
:1017900019894E855F856C857D85CC88CE010E9438
:1017A000661ABECF81E090E0DF91CF911F910F913B
:1017B000FF90EF90CF90BF90AF9008958B988A984C
:1017C00020910201277820930201A5982EB1277C51
:1017D0002EB970910201292F3327F901E370FF27F9
:1017E000A5E0EE0FFF1FAA95E1F7E72BE0930201BA
:1017F0007EB1F901EC70FF27EE0FFF1FEE0FFF1F08
:10180000E72BEEB974B3F901E071FF27EE0FFF1F6C
:10181000E72BE4BB7EB1F901E072FF27F595E79570
:10182000F595E795E72BEEB970910201207C3327FF
:10183000E3E035952795EA95E1F7272B2093020100
:101840008998899A20910201277820930201A5980E
:101850002EB1277C2EB9709102019C012370332791
:10186000F5E0220F331FFA95E1F7272B20930201B1
:101870007EB19C012C703327220F331F220F331FA0
:10188000272B2EB974B39C0120713327220F331FED
:10189000272B24BB7EB19C012072332735952795D9
:1018A00035952795272B2EB9709102019C01207C3C
:1018B0003327F3E035952795FA95E1F7272B209309
:1018C00002018998899A8A9AFA01A0918D027FEF84
:1018D000760F16160CF0C7C02191309102013778AF
:1018E00030930201A5983EB1377C3EB96091020168
:1018F000322F3370B0E23B9FA0011124462B40935E
:1019000002016EB1322F3C70B4E03B9FA001112464
:10191000462B4EB944B3322F3071330F342B34BBC6
:101920006EB1322F3072432F50E055954795559543
:101930004795462B4EB930910201207C269526957D
:101940002695232B209302018998899A711102C050
:10195000672FBDCFAA23E1F301968A982091020157
:10196000277820930201A5982EB1277C2EB960918B
:101970000201292F3327A90143705527B5E0440FF1
:10198000551FBA95E1F7462B409302016EB1A901AC
:101990004C705527440F551F440F551F462B4EB909
:1019A00064B3A90140715527440F551F462B44BB12
:1019B0006EB1A901407255275595479555954795A4
:1019C000462B4EB940910201207C332753E03595D8
:1019D00027955A95E1F7242B209302018998899A3B
:1019E00020910201277820930201A5982EB1277C2F
:1019F0002EB9409102019C012370332765E0220F2C
:101A0000331F6A95E1F7242B209302014EB19C010C
:101A10002C703327220F331F220F331F242B2EB994
:101A200044B39C0120713327220F331F242B24BB86
:101A30004EB19C0120723327359527953595279512
:101A4000242B2EB9409102019C01207C3327B3E066
:101A500035952795BA95E1F7242B209302018998B3
:101A6000899A8A9A75CF8B9A08958B988A98E2E022
:101A7000F1E0208127782083A5982EB1277C2EB90C
:101A8000A081292F3327A90143705527B5E0440FC2
:101A9000551FBA95E1F74A2B4083AEB1A9014C70AE
:101AA0005527440F551F440F551F4A2B4EB9A4B359
:101AB000A90140715527440F551F4A2B44BBAEB1B5
:101AC000A9014072552755954795559547954A2B3D
:101AD0004EB94081207C332753E0359527955A95A0
:101AE000E1F7242B20838998899A20812778208305
:101AF000A5982EB1277C2EB940819C0123703327F5
:101B0000A5E0220F331FAA95E1F7242B20834EB1C5
:101B10009C012C703327220F331F220F331F242BDD
:101B20002EB944B39C0120713327220F331F242B7D
:101B300024BB4EB19C0120723327359527953595EE
:101B40002795242B2EB92081807C9927B3E0959589
:101B50008795BA95E1F7822B80838998899A8A9A2A
:101B6000808187788083A5988EB1877C8EB94081EB
:101B7000872F99279C012370332755E0220F331FAD
:101B80005A95E1F7242B20834EB19C012C7033270A
:101B9000220F331F220F331F242B2EB944B39C0175
:101BA00020713327220F331F242B24BB4EB19C01FD
:101BB000207233273595279535952795242B2EB9F7
:101BC0002081807C9927A3E095958795AA95E1F7D8
:101BD000822B80838998899A808187788083A598D1
:101BE0008EB1877C8EB92081CB0183709927B5E0B7
:101BF000880F991FBA95E1F7822B80832EB1CB0114
:101C00008C709927880F991F880F991F822B8EB986
:101C100024B3CB0180719927880F991F822B84BB35
:101C20002EB1CB01807299279595879595958795CB
:101C3000822B8EB98081607C7727A3E075956795AC
:101C4000AA95E1F7682B60838998899A8B9A089501
:101C50001F920F920FB60F9211240BB60F922F9373
:101C60003F938F939F93EF93FF9320918F03309136
:101C7000900380919103909192032817390731F4D2
:101C8000809131018F7D8093310114C0E0919103E7
:101C9000F0919203E15BFC4F208180919103909140
:101CA000920301968F7399279093920380939103E7
:101CB00020933601FF91EF919F918F913F912F914A
:101CC0000F900BBE0F900FBE0F901F9018951F9294
:101CD0000F920FB60F9211240BB60F922F933F93D2
:101CE0008F939F93EF93FF932091170430911804E3
:101CF0008091190490911A042817390731F48091C2
:101D0000D1008F7D8093D10014C0E0911904F0912F
:101D10001A04E952FC4F20818091190490911A0411
:101D200001968F73992790931A0480931904209336
:101D3000D600FF91EF919F918F913F912F910F903E
:101D40000BBE0F900FBE0F901F9018951F920F9211
:101D50000FB60F9211240BB60F922F933F938F93D0
:101D60009F93EF93FF9320919F043091A004809163
:101D7000A1049091A2042817390731F48091C90079
:101D80008F7D8093C90014C0E091A104F091A2045A
:101D9000E15AFB4F20818091A1049091A204019609
:101DA0008F7399279093A2048093A1042093CE006F
:101DB000FF91EF919F918F913F912F910F900BBECB
:101DC0000F900FBE0F901F9018951F920F920FB695
:101DD0000F9211240BB60F922F933F938F939F93E3
:101DE000EF93FF93209127053091280580912905D5
:101DF00090912A052817390731F48091C1008F7D11
:101E00008093C10014C0E0912905F0912A05E951A1
:101E1000FB4F20818091290590912A0501968F73AF
:101E2000992790932A05809329052093C600FF9156
:101E3000EF919F918F913F912F910F900BBE0F903B
:101E40000FBE0F901F9018951F920F920FB60F9212
:101E500011240BB60F922F933F934F935F936F9381
:101E60007F938F939F93AF93BF93EF93FF93809153
:101E7000300182FD07C08091360163E973E00E9462
:101E8000C60A02C080913601FF91EF91BF91AF91D8
:101E90009F918F917F916F915F914F913F912F9182
:101EA0000F900BBE0F900FBE0F901F9018951F92B2
:101EB0000F920FB60F9211240BB60F922F933F93F0
:101EC0004F935F936F937F938F939F93AF93BF9342
:101ED000EF93FF938091D00082FD07C08091D600E0
:101EE0006BE174E00E94C60A02C08091D600FF91A7
:101EF000EF91BF91AF919F918F917F916F915F9182
:101F00004F913F912F910F900BBE0F900FBE0F90EE
:101F10001F9018951F920F920FB60F9211240BB6B7
:101F20000F922F933F934F935F936F937F938F9372
:101F30009F93AF93BF93EF93FF938091C80082FD6F
:101F400007C08091CE0063EA74E00E94C60A02C016
:101F50008091CE00FF91EF91BF91AF919F918F91B2
:101F60007F916F915F914F913F912F910F900BBE99
:101F70000F900FBE0F901F9018951F920F920FB6E3
:101F80000F9211240BB60F922F933F934F935F93B1
:101F90006F937F938F939F93AF93BF93EF93FF9331
:101FA0008091C00082FD07C08091C6006BE275E0A1
:101FB0000E94C60A02C08091C600FF91EF91BF91B6
:101FC000AF919F918F917F916F915F914F913F91D1
:101FD0002F910F900BBE0F900FBE0F901F90189572
:101FE0006115710579F0FB0101900020E9F7319747
:101FF000AF01461B570BDC01ED91FC910280F38190
:10200000E02D199480E090E00895FC018081918199
:102010000C943732EF92FF920F931F93CF93DF937D
:10202000EC01198218821B821A821D821C821E8278
:1020300061157105B9F17B01FB0101900020E9F701
:1020400031978F01061B170BB8016F5F7F4F80E040
:1020500090E00E94C032009759F0998388831B83D7
:102060000A832C813D81232B81F4FC0110820DC059
:1020700088819981009711F00E9437321982188265
:102080001D821C821B821A820DC01D830C83B70126
:1020900088819981DF91CF911F910F91FF90EF90EF
:1020A0000C94AE33DF91CF911F910F91FF90EF9081
:1020B00008958F929F92AF92BF92CF92DF92EF924C
:1020C000FF920F931F93CF93DF9300D01F92CDB752
:1020D000DEB77C015B016A014901FC01868D978DA9
:1020E0008732F3E99F0799F4F7018589823031F44B
:1020F000F0E2CF0ED11C005E1F4F1EC08330E1F412
:1021000020E2A20EB11C80E2880E911C15C086321E
:10211000954191F4F701858980FF0EC0C801841BA9
:10212000950B19F40F5F1F4F07C06217730721F457
:102130004B01880E991E8A01F701848D80FF3BC0F8
:1021400084A5B982AA829B828C82AE014F5F5F4FC9
:1021500064E090E00E94DE0BF70180A9D982CA8278
:102160001B830C83AE014F5F5F4F64E090E00E94E1
:10217000DE0B80918D02882309F459C0F701868D0A
:10218000978D8536910509F052C0B982AA82AE01B9
:102190004F5F5F4F62E086A197A10E94DE0BD9825C
:1021A000CA82AE014F5F5F4F62E0F70180A591A543
:1021B0000E94DE0B3CC0B501F70186A197A10E94E9
:1021C000350DB601F70180A591A50E94350D8A1441
:1021D0009B0419F40C151D0551F1F701848D85FF41
:1021E0000EC0858980FF06C0102F0027C02AD12A83
:1021F000860105C0982C8824A828B9284501B50176
:10220000F70184A595A50E94350DB601F70180A9B7
:1022100091A90E94350DB401F70186A597A50E94EA
:10222000350DB801F70182A993A90E94350D0F90D1
:102230000F900F900F90DF91CF911F910F91FF9012
:10224000EF90DF90CF90BF90AF909F908F900895C8
:10225000AF92BF92CF92DF92EF92FF920F931F93B4
:10226000CF93DF93EC0180918C02882349F0C70162
:102270008F719927880F991FE1ECEE22E82AF92A3D
:1022800037FF05C0620F731F319521953109260F65
:10229000371F77FF02C060E070E0E885F9852E17F0
:1022A0003F070CF4F9015F01A61AB70A17FF05C032
:1022B000400F511F119501951109CA01800F911FFF
:1022C00057FF02C040E050E00A851B858017910748
:1022D0000CF48C016801C41AD50A015011099F0140
:1022E00021503109CE010E9459108B988A988AA5F5
:1022F0009BA520910201277820930201A5982EB179
:10230000277C2EB960910201292F3327A901437040
:10231000552705E0440F551F0A95E1F7462B4093DA
:1023200002016EB1A9014C705527440F551F440F8F
:10233000551F462B4EB964B3A90140715527440F70
:10234000551F462B44BB6EB1A901407255275595C8
:10235000479555954795462B4EB940910201207CF3
:102360003327A3E035952795AA95E1F7242B2093F1
:1023700002018998899A209102012778209302010D
:10238000A5982EB1277C2EB9409102019C012370A3
:102390003327B5E0220F331FBA95E1F7242B2093A2
:1023A00002014EB19C012C703327220F331F220FE4
:1023B000331F242B2EB944B39C0120713327220FE5
:1023C000331F242B24BB4EB19C012072332735953B
:1023D000279535952795242B2EB920910201807CD5
:1023E000992763E0959587956A95E1F7822B80930D
:1023F00002018998899A8A9AAC14BD042CF49A2D0A
:102400008B2D5601C92ED82E8F2D99279C01237014
:1024100033272295220F207EAC014C705527342F94
:10242000330F330FAC0140715527440FBC01769533
:10243000679576956795562F587063E096958795C2
:102440006A95E1F78871B70163707727962F9295A7
:10245000990F907EB7016C707727660F660FF701B2
:10246000E071FF277E2F770FD701B695A795B69518
:10247000A795A870F701B3E0F695E795BA95E1F74F
:102480001E2F18711C141D040CF043C0F501B091EF
:102490000201B778B0930201A598BEB1B77CBEB96E
:1024A000B0910201B22BB0930201BEB1B32BBEB901
:1024B000B4B3B42BB4BBBEB1B52BBEB9B09102015D
:1024C000B82BB09302018998899AB0910201B7782C
:1024D000B0930201A598BEB1B77CBEB9B09102011C
:1024E000B92BB0930201BEB1B62BBEB9B4B3B72BB2
:1024F000B4BBBEB1BA2BBEB9B0910201B12BB0933F
:1025000002018998899A319711F6E1E0CE1AD10833
:10251000B9CF8B9A8C8D80FF08C08E8D9F8D8632AF
:10252000954191F48D8980FF0FC00A851B8501506C
:102530001109288539852150310940E050E060E0DB
:1025400070E0CE010E945910DF91CF911F910F9141
:10255000FF90EF90DF90CF90BF90AF900895EF92F3
:10256000FF920F931F93CF93DF937C01E90177FDD7
:1025700069C157FD67C1FC0180859185681779079E
:102580000CF060C182859385481759070CF05AC139
:1025900080918C02882341F0CE018F719927880F9A
:1025A000991FC17CC82BD92B8A019B01C7010E94AE
:1025B000591080918D02882309F438C18B988A982C
:1025C000F70182A593A520910201277820930201AB
:1025D000A5982EB1277C2EB960910201292F3327AF
:1025E000A9014370552775E0440F551F7A95E1F70F
:1025F000462B409302016EB1A9014C705527440F40
:10260000551F440F551F462B4EB964B3A9014071A5
:102610005527440F551F462B44BB6EB1A90140728C
:1026200055275595479555954795462B4EB9409159
:102630000201207C3327B3E035952795BA95E1F761
:10264000242B209302018998899A209102012778EE
:1026500020930201A5982EB1277C2EB9409102014A
:102660009C012370332715E0220F331F1A95E1F7E1
:10267000242B209302014EB19C012C703327220F92
:10268000331F220F331F242B2EB944B39C0120711A
:102690003327220F331F242B24BB4EB19C01207201
:1026A00033273595279535952795242B2EB92091DD
:1026B0000201807C992773E0959587957A95E1F7DB
:1026C000822B809302018998899A8A9A2C2F220F53
:1026D000220F220F80910201877880930201A59832
:1026E0008EB1877C8EB980910201809302013EB148
:1026F000CE018827987F892F9927AC014C705527E8
:10270000440F551F440F551F432B4EB934B3AC0132
:1027100040715527440F551F432B44BB3EB1AC01BC
:10272000407255275595479555954795432B4EB97A
:1027300030910201807C992713E0959587951A9531
:10274000E1F7832B809302018998899A8091020195
:10275000877880930201A5988EB1877C8EB980918D
:102760000201809302013EB1C07ED77003E0D6958E
:10277000C7950A95E1F7CE018C709927880F991FAC
:10278000880F991F832B8EB934B3CE01807199279E
:10279000880F991F832B84BB3EB1CE01807299278D
:1027A0009595879595958795832B8EB98091020194
:1027B000C07CDD2773E0D595C7957A95E1F7C82BE6
:1027C000C09302018998899A809102018778809349
:1027D0000201A5988EB1877C8EB980910201809309
:1027E00002019EB1822F8C70880F880F892B8EB9C1
:1027F00094B3822F8071880F892B84BB3EB1922FB6
:102800009072892F90E09595879595958795832B64
:102810008EB980910201207C269526952695282B3D
:10282000209302018998899A8B9A0CC0BE01F70106
:1028300082A593A5DF91CF911F910F91FF90EF900B
:102840000C94350DDF91CF911F910F91FF90EF9078
:102850000895DF92EF92FF920F931F93CF93DF9330
:10286000CDB7DEB72A970FB6F894DEBF0FBECDBF47
:102870007C01862F8370D70155968C935597462FF0
:10288000417060FF05C016962D913C91179703C0CB
:10289000F70124813581D70119963C932E9318971F
:1028A000442329F014962D913C91159703C0F7010C
:1028B00026813781D7011B963C932E931A9782303D
:1028C00041F0833041F0813011F088E405C088E2A6
:1028D00003C088E901C088EF8A87F701248D358D10
:1028E00030FF03C08A8580588A8731FF04C09A85EB
:1028F00080E489278A8733FF04C09A8588E0892786
:102900008A87D7015E968D919C915F9720FFD5C0F5
:1029100010918D028431B8E69B07F9F49A85892FCE
:10292000881F8827881F8295880F880F807C96FDD6
:1029300002C020E001C020E298729A871F82826064
:10294000822B88878BE38987AE01495F5F4F63E005
:1029500086EB90E00E94DE0B89C08336E9E19E079A
:1029600041F08138F4E99F0721F0813125E1920798
:1029700009F52A8527FF02C021602A872A8526FFBC
:1029800002C022602A87833639E1930719F48A85C9
:102990008F730EC0813844E9940719F48A858F72C9
:1029A00007C08131954109F061C08A858F7E806CB6
:1029B0008A875CC0112309F459C062E070E0F70116
:1029C00077A366A326E030E031A720A7E2E2F0E09B
:1029D000D7019B96FC93EE939A979D967C936E936A
:1029E0009C9764E070E09F967C936E939E97D1963F
:1029F0003C932E93D09728E030E0D3963C932E93CF
:102A0000D2978536910521F58A85982F916084FDAE
:102A100002C09A8703C083ED89278A87442351F037
:102A200082E890E0F70197A386A380E890E091A761
:102A300080A732C280E890E0D70197969C938E934E
:102A4000969782E890E099969C938E93989724C2EB
:102A50008235924501F58A85982F926084FD02C0E7
:102A60009A8719C084ED89278A8715C02AE230E049
:102A7000F70137A326A38BE290E091A780A74CE251
:102A800050E053A742A735A724A737A726A791ABA5
:102A900080AB93AB82AB1111FFC186E390E0AE0136
:102AA000465F5F4F61E00E94DE0B8A8590E0D701B0
:102AB00093969C938E939297E6C02A858339B7E7C5
:102AC0009B0709F448C050F48435F1E09F0781F07A
:102AD000803234E5930709F081C03DC0863243E976
:102AE0009407C9F18930A5EB9A0709F077C033C084
:102AF00087E390E0F70195A784A786E390E097A786
:102B000086A789E390E091AB80AB88E390E093AB3C
:102B100082AB80E290E097A386A381E290E091A748
:102B200080A782E290E093A782A7822F022E000C5A
:102B3000990B8827990F881F9927982F8827990F15
:102B400026FD03C060E070E002C060E071E08862D2
:102B5000682B792B82C040E052E0D70197965C93B6
:102B60004E93969741E052E099965C934E939897D6
:102B700042E052E09B965C934E939A9740E152E07C
:102B80009D965C934E939C9741E152E09F965C9397
:102B90004E939E9742E152E0D1965C934E93D0972C
:102BA00043E152E0D3965C934E93D29727FD03C046
:102BB00020E030E002C020E030E88632B3E99B0735
:102BC00031F08032944519F060E07AE602C060E0AE
:102BD00075E3622B732B80E094E035C080E290E0D7
:102BE000D70197969C938E93969781E290E0999661
:102BF0009C938E93989782E290E09B969C938E9301
:102C00009A9780E590E09D969C938E939C9781E5A2
:102C100090E09F969C938E939E9782E590E0D1964C
:102C20009C938E93D09783E590E0D3969C938E935C
:102C3000D29727FD03C060E070E002C060E070E85A
:102C4000776280E690E00E94350D8A8586FD03C09C
:102C500060E070E002C060E071E081E090E00E941E
:102C6000350D8A8585FD03C060E070E002C068E034
:102C700070E083FD70616063F70173A362A383E07A
:102C800090E00E94350DD70155968C91559780FFA5
:102C900036C05C968D919C915D9792FD30C0969662
:102CA0008D919C91979798962D913C919997979695
:102CB0003C932E93969799969C938E9398979C9677
:102CC0008D919C919D97D0962D913C91D1979D96F9
:102CD0003C932E939C97D1969C938E93D0979E96DF
:102CE0008D919C919F97D2962D913C91D3979F96D1
:102CF0003C932E939E97D3969C938E93D297F701F5
:102D00000285138501501109208531852150310933
:102D100040E050E060E070E0C7010E945910D70128
:102D200016966D917C9117975E968D919C915F9709
:102D30008732B3E99B0741F4F701258922502230FD
:102D400018F400E210E002C000E010E08732F3E97E
:102D50009F0729F022273327201B310B04C020E2D4
:102D600030E0201B310BD7015C964C9140FF45C0F1
:102D70001982D02E0A837B836C833D832E8310912E
:102D80008D02111103C083E390E002C08EE090E059
:102D9000AE014F5F5F4F66E00E94DE0B1982DA8260
:102DA000111103C087E390E002C084E190E0AE011E
:102DB0004F5F5F4F62E00E94DE0B112389F01982A2
:102DC000F701868D978D8734934819F081E090E064
:102DD00002C088E190E0AE014F5F5F4F61E00AC042
:102DE000D7015C968C9180FF5AC040E050E060E0D3
:102DF00083E190E00E94DE0B52C08339B7E79B0766
:102E000079F160F48032F4E59F0751F1833827E7C8
:102E1000920781F08435914089F510C0863243E9EC
:102E20009407F1F08930A5EB9A07D1F085329249E9
:102E300029F504C0F70160A171A124C0600F711FC2
:102E40006150710981E390E00E94350DB80182E381
:102E500090E00E94350D60E070E083E390E019C0DF
:102E6000D70190966D917C919197626081E094E09A
:102E70000E94350DB80184E094E00BC0F70160A119
:102E800071A1626081E690E00E94350DB8018AE68A
:102E900090E00E94350D03C086E190E000CE2A96B6
:102EA0000FB6F894DEBF0FBECDBFDF91CF911F915B
:102EB0000F91FF90EF90DF900895089585ED809336
:102EC000BC008091BC0084FDFCCF10921E030895CD
:102ED0004091D402262F30E0240F311D21323105DC
:102EE000DCF420911E032430C9F4FC0180E090E062
:102EF000861758F43091D4022191DC01AC54BD4FB7
:102F0000A30FB11D2C930196F3CF8091D402680FCB
:102F10006093D40280E0089581E0089582E00895EE
:102F2000089508950895E091AF028091AE02E817E8
:102F300030F4F0E0E257FD4F808190E008958FEF8C
:102F40009FEF08959091AF028091AE02981750F4D0
:102F5000E92FF0E0E257FD4F208130E09F5F909332
:102F6000AF0202C02FEF3FEFC90108958091AE027A
:102F700090E02091AF02821B91090895CF92DF92D9
:102F8000EF92FF920F931F93CF93DF937C01CB01BE
:102F90008A0120911F03222389F0EB016B01C40EEB
:102FA000D51ECC15DD0569F06991D701ED91FC9135
:102FB0000190F081E02DC7011995F3CF642F0E9495
:102FC0006817C801DF91CF911F910F91FF90EF908B
:102FD000DF90CF900895CF93DF931F92CDB7DEB7E8
:102FE000698320911F032223D1F0209142032032D4
:102FF00040F021E030E0FC013383228380E090E068
:1030000015C080912003E82FF0E0EF5DFC4F99811F
:1030100090838F5F809320038093420305C061E01B
:10302000CE0101960E94681781E090E00F90DF9139
:10303000CF910895FC01848D958D292F22952F70B5
:1030400030E021703327A9014627BA0171A360A39C
:1030500080FF0CC0672B19F480E290E002C081E28F
:1030600090E040E050E060E00C94DE0B868D978DA0
:10307000833957E79507E1F040F4843541E0940740
:1030800079F080329445C1F413C0863223E9920767
:1030900079F0893045EB940759F08532924961F413
:1030A000660F771F660F771F636187E090E006C0A9
:1030B000626081E094E002C081E690E00C94350DFE
:1030C00090E0FC01E059F24F4491FC01EA54F24FC8
:1030D0002491FC01EA5EF14F9491992309F462C0B6
:1030E000442309F451C050E0FA013197E131F10570
:1030F00008F04AC08827EE58FF4F8F4F0C94D935FF
:10310000809180008F7703C0809180008F7D8093B5
:1031100080003AC084B58F7702C084B58F7D84BDAE
:1031200033C08091B0008F7703C08091B0008F7D55
:103130008093B00029C0809190008F7707C0809164
:1031400090008F7D03C080919000877F80939000D6
:103150001BC08091A0008F7707C08091A0008F7D59
:1031600003C08091A000877F8093A0000DC0809154
:1031700020018F7707C0809120018F7D03C080914F
:103180002001877F80932001E92FF0E0EE0FFF1FE1
:10319000E450F24FA591B4918FB7F894EC91E22BE3
:1031A000EC938FBF089581E08093F702E1E0F1E0B6
:1031B0008081886780839D9A8DB188638DB9809A5C
:1031C000819A829A839A849A8B9A889A899A8C9AFD
:1031D00062E370E080E090E00E9421258C9864E634
:1031E00070E080E090E00E9421258C9A64E670E017
:1031F00080E090E00E94212560E070E080EB90E0AC
:103200000C94350D0F931F93CF93DF93EC01162F82
:103210008091F702811102C00E94D3188B988A987E
:1032200080910201877880930201A5988EB1877CF6
:103230008EB9409102018D2F99279C01237033276D
:1032400055E0220F331F5A95E1F7242B20930201FA
:103250004EB19C012C703327220F331F220F331FD6
:10326000242B2EB944B39C0120713327220F331F26
:10327000242B24BB4EB19C01207233273595279512
:1032800035952795242B2EB920910201807C992712
:10329000F3E095958795FA95E1F7822B80930201EB
:1032A0008998899A80910201877880930201A59874
:1032B0008EB1877C8EB920910201CE01837099274F
:1032C000A5E0880F991FAA95E1F7822B8093020150
:1032D0002EB1CE018C709927880F991F880F991FE6
:1032E000822B8EB924B3CE0180719927880F991F44
:1032F000822B84BB2EB1CE0180729927959587953C
:1033000095958795822B8EB980910201C07CDD272F
:1033100043E0D595C7954A95E1F7C82BC0930201C4
:103320008998899A8A9A809101018778809301010E
:103330009D988DB1877C8DB961E070E080E090E070
:103340000E942125889A8898889888986091000121
:103350008CB1A2B34CB100910001889A889A8898E8
:1033600088988898E0910001FCB132B32CB1C091EB
:103370000001889A115017FFE5CF889A8B9A909197
:1033800001019867909301019D9A9DB198639DB941
:10339000487050E0440F551F440F551F087198E0C6
:1033A000099F80011124402B512BA072B0E0B595EC
:1033B000A7954A2B5B2B807390E095958795959503
:1033C0008795482B592B607670E0B5E07595679529
:1033D000BA95E1F7462B572B542F44272870220F1C
:1033E000220F8C2F887198E0899FE00111249C2F77
:1033F000922B3072232F30E035952795292B9F2F64
:10340000907396959695922B2E2F20762295269541
:103410002770292BCA01822BDF91CF911F910F9129
:103420000895FF920F931F93CF93DF93EC0160E019
:103430000E9402198C0161E0CE010E940219F82E4F
:1034400062E0CE010E94021920E030E0302F2227F6
:103450001127002740E050E05F2D60E070E0042B72
:10346000152B262B372B492F50E060E070E0CB0165
:10347000BA01602B712B822B932BDF91CF911F917F
:103480000F91FF9008950F931F93CF93DF938C01BB
:1034900060E00E940219EC0161E0C8010E9402197B
:1034A000AC01CE01A0E0B0E0DC019927882760E004
:1034B00070E08C019D01042B152B262B372BC901A5
:1034C000B801DF91CF911F910F9108952F923F92F4
:1034D0004F925F926F927F928F929F92AF92BF9224
:1034E000CF92DF92EF92FF920F931F93CF93DF93D0
:1034F000CDB7DEB76B970FB6F894DEBF0FBECDBF6A
:103500009B8F8A8F5B011A01D22E1F830E83370196
:10351000C982DC0158962D913C91599721153105AE
:1035200009F0E6C018968D919C9119976817790754
:103530000CF0CDC11A968D919C911B974817590795
:103540000CF0C5C18C2C912CFB0126E0C29EE00D35
:10355000F11D1124FB87EA871E161F060CF0B7C168
:10356000A40183E0440F551F8A95E1F75D874C87DE
:10357000CA01820D931D181619060CF0A8C15796A2
:103580008C91811104C05FEA5D1508F4D394AA8D73
:10359000BB8DED91FC9111970680F781E02DCD0157
:1035A0001995B5E0DB9EC0011124F5013596FF8722
:1035B000EE87BB82AA8225019C012A193B09398B1F
:1035C000288BA101485F5F4F5B8B4A8BE889F989A3
:1035D000E40DF51DE059F74F5491588761013D8284
:1035E0002C82888580FF13C0AA8DBB8DED91FC9144
:1035F000B981B13031F40084F185E02D2E813F8115
:1036000016C00284F385E02DEE80FF801AC0EE81A3
:10361000FF81E615F705F1F0AA8DBB8DED91FC91C8
:10362000B981B13051F40084F185E02D9301A601F8
:10363000B2018A8D9B8D19950DC00284F385E02D12
:103640007301840194014C815D816A817B818A8D43
:103650009B8D1995E885E695E887FFEFCF1ADF0A7D
:103660002C813D81280D391D3D832C834A895B893E
:10367000C416D50609F0B5CF5FEF451A550A8A8101
:103680009B81880D991D9B838A83AE85BF854A16D1
:103690005B0609F09BCFEE81FF81E615F70509F483
:1036A000F4C0EA8DFB8DA081B181F981F13079F40C
:1036B000B5016B5F7F4F1C96ED91FC911D978301C7
:1036C00028E030E0A1018A8D9B8D1995DEC06A85C6
:1036D0007B85681979091A96ED91FC911B97730106
:1036E0000C851D859401A1018A8D9B8D1995CDC0F6
:1036F000F9013496E491DE1AF9013296859194919C
:10370000B7E0DB9E800D911D1124F90125913491C4
:103710003B8B2A8BFC01259134912901FC013296C7
:10372000C490319634913E87329614913196D4905C
:103730004981423058F0612E012E000C77088D2D02
:103740000D2C000C990B9987888704C01986188660
:10375000612C712CAA8DBB8DED91FC911197068087
:10376000F781E02DCD011995B9818B2E912C689CA4
:10377000C001699C900D789C900D1124FC01EA0D0C
:10378000FB1DFD87EC871A82712C612CE12F110F34
:10379000FF0B95012E0F3F1F3B872A87AC0CB11CF6
:1037A000A5014E0F5F1F5F8B4E8BC1018D0D911DCB
:1037B000D7FC9A95998F888F9E85691608F065C009
:1037C000862D90E048855985480F591F489D9001E6
:1037D000499D300D589D300D1124D101A20FB31F0A
:1037E000B98BA88BEC85FD85FD83EC83AA84BB8413
:1037F000DA80FA85DF1A288D398D280F391F3D8B25
:103800002C8B8D2D8A0D4E895F89A416B506C1F1CA
:10381000877041F4C2010196EA89FB89E40DF51D28
:1038200074902C0177FE21C0AA8DBB8DED91FC9187
:10383000B981B13061F40084F185E02D2E813F81A2
:103840004C895D89B5018A8D9B8D19950EC00284C6
:10385000F385E02DEE80FF80840194014889598929
:103860006C817D818A8D9B8D1995770CEFEFAE1A57
:10387000BE0A2C813D81280D391D3D832C83C1CF8B
:103880003A813C0D3A83639497CFAA8DBB8DED911D
:10389000FC9111970288F389E02DCD016B960FB64C
:1038A000F894DEBF0FBECDBFDF91CF911F910F9176
:1038B000FF90EF90DF90CF90BF90AF909F908F9050
:1038C0007F906F905F904F903F902F9019946B96E0
:1038D0000FB6F894DEBF0FBECDBFDF91CF911F9121
:1038E0000F91FF90EF90DF90CF90BF90AF909F909F
:1038F0008F907F906F905F904F903F902F900895A2
:10390000863308F0865390917B00282F2870977F8C
:10391000922B90937B008770806480937C008091D1
:103920007A00806480937A0080917A0086FDFCCFD3
:10393000809178002091790090E0922B08951F9259
:103940000F920FB60F9211240BB60F922F933F9345
:103950004F935F936F937F938F939F93AF93BF9397
:10396000EF93FF938091B900887F803609F49CC063
:1039700068F5883209F45BC090F4803109F454C0D2
:1039800038F4882309F4F6C0883009F44DC0F6C035
:10399000883109F44CC0803209F45DC0EFC0803436
:1039A00009F468C048F4803309F455C0883309F03D
:1039B000E5C080931C03D8C0803509F44FC088351A
:1039C00009F45DC0883409F0D9C0D6C0883909F43B
:1039D000C7C0A8F4883709F467C038F4883609F4FA
:1039E00063C0803709F460C0C9C0883809F4B8C022
:1039F000803909F45FC0803809F0C0C05BC0803BEB
:103A000009F486C038F4803A09F466C0883A09F4AB
:103A10007FC0B4C0803C09F4A7C0883C09F4A4C0AE
:103A2000883B09F48AC0AAC08091F90210C0909125
:103A30001B0380911A03981770F5E0911B0381E036
:103A40008E0F80931B03F0E0E650FD4F8081809342
:103A5000BB0085EC86C080931C038EC0E0911B03E5
:103A600081E08E0F80931B038091BB00F0E0E65055
:103A7000FD4F808390911B0380911A036EC0E091EB
:103A80001B0381E08E0F80931B038091BB00F0E04D
:103A9000E650FD4F808380911D0381116DC081E050
:103AA0008093F80284EA61C083E080931E03109241
:103AB000F602CFCF8091F602803208F051C0E0913B
:103AC000F60281E08E0F8093F6028091BB00F0E059
:103AD000EA52FD4F8083BDCF85EC8093BC001092ED
:103AE0001E038091F602803230F4E091F602F0E09D
:103AF000EA52FD4F10826091F60270E0E091B2024E
:103B0000F091B30286ED92E019951092F60236C05C
:103B100084E080931E031092D5021092D402E091AB
:103B2000B002F091B10219958091D402811105C0C3
:103B300081E08093D4021092B402E091D50281E03A
:103B40008E0F8093D502F0E0EC54FD4F808180937E
:103B5000BB009091D5028091D402981708F479CFD8
:103B600085E88093BC000AC085EC8093BC0010926D
:103B70001E0304C010921C030E945E17FF91EF9178
:103B8000BF91AF919F918F917F916F915F914F9175
:103B90003F912F910F900BBE0F900FBE0F901F9073
:103BA00018950F931F93CF93DF93EC018B011016A1
:103BB0001106B4F4FE01859194912496FE0132978A
:103BC000659174918F3F2FEF920729F480E090E088
:103BD0000E94212502C00E94350D04501109E7CF33
:103BE000DF91CF911F910F910895DF92EF92FF9295
:103BF0000F931F93CF93DF93CDB7DEB768970FB6C0
:103C0000F894DEBF0FBECDBF7C018B0110161106EC
:103C100054F5F70184913196D490F2E0EF0EF11C47
:103C20008F3741F46D2D70E080E090E00E942125F7
:103C3000D12C13C02E2DDE011196F701AD019E2F60
:103C4000921B9D1520F494919D933196F8CFED0C25
:103C5000F11C6D2D90E00E94DE0BED2DF0E0329610
:103C60000E1B1F0BD3CF68960FB6F894DEBF0FBEA6
:103C7000CDBFDF91CF911F910F91FF90EF90DF901B
:103C80000895EF92FF920F931F93DC011A960D9106
:103C90001C911B9718962D913C911997ED91FC91D1
:103CA000048CF58DE02D7B0140E050E060E070E099
:103CB00019951F910F91FF90EF9008956F927F9249
:103CC0008F929F92AF92BF92CF92DF92EF92FF922C
:103CD0000F931F93CF93DF934B015A013901E801F2
:103CE000F70125E02093D7054081487F22812C7F72
:103CF00058E0259F90011124342B44814695469528
:103D00004695242B1092D4051092D3053093D605F6
:103D10002093D505DB012D913C91280F391FECE351
:103D2000F0E0C901BF010E94C5358B0144EC460398
:103D3000C001479F900D1124280F391FD4012D93E6
:103D40003C93D5012D913C91260F371FC901BF012E
:103D50000E94C5357B014603C001479F900D112489
:103D6000280F391FF50131832083D3018D919C9158
:103D70001197860F971F8D939C9361E089E30E94B2
:103D8000E52461E088E30E94E524F40180819181CB
:103D90000A9774F4888199819093D0058093CF0518
:103DA000D092D205C092D1058FE692E00E94FE2209
:103DB000888199819093D0058093CF05D092D205C8
:103DC000C092D105D4018D919C910E94662210165B
:103DD000110614F5F501808191810A9774F48A81A6
:103DE0009B819093D0058093CF05D092D205C0924D
:103DF000D1058FE692E00E94FE228A819B819093FA
:103E0000D0058093CF05D092D205C092D105D501BF
:103E10008D919C910E9466221E141F0414F5F301DB
:103E2000808191810A9774F48C819D819093D00553
:103E30008093CF05D092D205C092D1058FE692E053
:103E40000E94FE228C819D819093D0058093CF05A6
:103E5000D092D205C092D105D3018D919C910E9440
:103E6000662260E089E30E94E52460E088E3DF9158
:103E7000CF911F910F91FF90EF90DF90CF90BF9067
:103E8000AF909F908F907F906F900C94E524CF938C
:103E900081E080931F0388E6809341031092200302
:103EA000109242036BE383E493E00E94EB1780E0FF
:103EB0000E94642480911E038111FCCF81E08093D5
:103EC0001E0380931D039FEF90931C0310921B030E
:103ED0009BE090931A038093F9028091F902806D20
:103EE0008093F9028091F802813061F41092F80217
:103EF0008091F9028093BB008091BC0083FDF8CFD4
:103F000085EC01C085EE8093BC0080911E0381305A
:103F1000E1F380911B038C3018F490911B0301C0D6
:103F20009CE0AAEFB2E0EEE8F2E080E0891721F031
:103F30002D9121938F5FFACF1092AF028093AE0242
:103F400083E493E00E94A21783E493E00E94A21707
:103F500083E493E00E94A21783E493E00E94A217F7
:103F600083E493E00E94A21783E493E00E94A217E7
:103F700083E493E00E94A217C82F83E493E00E9499
:103F8000A21720E030E03C2F822B932B90938102EC
:103F90008093800283E493E00E94A21783E493E07D
:103FA0000E94A21783E493E00E94A21783E493E0A7
:103FB0000E94A21783E493E00E94A21783E493E097
:103FC0000E94A2176091800270918102072E000C5E
:103FD000880B990B0E94CC3420E030E04AEA53E48D
:103FE0000E94223428EB3EE142E152E40E94B633C3
:103FF0000E9494347093810260938002CF9108955F
:104000002F923F924F925F926F927F928F929F92E8
:10401000AF92BF92CF92DF92EF92FF920F931F93D6
:10402000CF93DF9361E089E30E94E52461E088E3B8
:104030000E94E524109289021092880266E476E6D6
:1040400083EC95E00E94411E83E08093D70500E059
:1040500018EF27E430E045E050E068E171E083ECE0
:1040600095E00E946909E12CF12CCC24C394D12C59
:10407000C3E2D0E0BAEB2B2E33243A941EEDA12EEE
:10408000BB24BA948FEFE81AF80A82E0C80ED11C5C
:10409000AC0CBD1C4E01880C991C8FEF881A980A35
:1040A000B701685E7E4F00E018EF9401E8E26E2EE3
:1040B000712C6C1A7D0AA30183EC95E00E946909BA
:1040C000F8E24F2E512C4E185F089601A201BE0156
:1040D000685E7E4F83EC95E00E94690968E171E0BB
:1040E0006E197F099401A30183EC95E00E94690990
:1040F0009601A20168E171E06C1B7D0B83EC95E0F9
:104100000E946909EC16FD064CF4B7FCBBCF219761
:1041100082E0280E311CA20CB31CB4CF20E030E0AA
:104120004DE150E06CE271E083EC95E00E9475098E
:1041300020E030E045E150E06CE271E083EC95E096
:104140000E94750920E030E049E150E060E371E051
:1041500083EC95E00E94750920E030E049E150E0F1
:1041600068E271E083EC95E00E9475094424439471
:10417000512CE12CF12CC4E0D0E048EF642E7724E0
:104180007A940DEF1FEF5CE2252E332433948FEFEA
:10419000E81AF80A82E0480E511C040D151D47016B
:1041A00084ED881A8EEF980A20E030E06E0189E1F4
:1041B000C80ED11CA601B40183EC95E00E947509DC
:1041C0005101AE18BF0820E030E0A601B50183EC34
:1041D00095E00E94750920E030E099E1C92ED12CCC
:1041E000CC1ADD0AA601B40183EC95E00E947509A2
:1041F00020E030E0A601B50183EC95E00E9475094E
:10420000670189E1C80ED11C20E030E0A6015E0103
:1042100084EDA81A8EEFB80AB50183EC95E00E94F0
:10422000750920E030E0A6016101CC1ADD0AB60173
:1042300083EC95E00E94750929E1822E912C8E185D
:104240009F0820E030E0A401B50183EC95E00E94D6
:10425000750920E030E0A401B60183EC95E00E94EE
:104260007509EC16FD064CF417FD91CF219782E0FD
:10427000680E711C060D171D8ACF1092D60510927C
:10428000D5051092D4051092D30589E091E0909362
:10429000D0058093CF05CEE1D0E0D093D205C09376
:1042A000D10580918002909181020E94662288E26D
:1042B00090E09093D0058093CF058CE791E09093A8
:1042C000D2058093D10582E792E00E94FE228FE121
:1042D000E82EF12C03E010E020EF30E048E651E05A
:1042E00068E270E083EC95E00E94281185E08093FD
:1042F000D705D093D005C093CF05CCE3D0E0D093C1
:10430000D205C093D10580918202909183020E94D0
:10431000662285E590E09093D0058093CF05D093F9
:10432000D205C093D1058DE692E00E94FE2289E677
:1043300090E09093D0058093CF05D093D205C093A1
:10434000D10580918402909185020E94662280EAC4
:1043500090E09093D0058093CF05D093D205C09381
:10436000D1058DE692E00E94FE2289EB90E09093C9
:10437000D0058093CF05D093D205C093D10580910D
:104380008602909187020E94662283E08093D7057F
:1043900082E890E09093D0058093CF0586E990E085
:1043A0009093D2058093D10588EA95E00E9403237B
:1043B00082E390E09093D0058093CF05C8ECD0E0E5
:1043C000D093D205C093D10581EA95E00E940323E2
:1043D0008CE890E09093D0058093CF05D093D205E0
:1043E000C093D1058AE995E00E94032382ED90E015
:1043F0009093D0058093CF05D093D205C093D1057B
:1044000083E995E00E94032360E089E30E94E524AC
:1044100060E088E3DF91CF911F910F91FF90EF90C3
:10442000DF90CF90BF90AF909F908F907F906F90D4
:104430005F904F903F902F900C94E524CF93DF93A3
:104440006DE08FE695E00E942D0AEC016AE08FE6B0
:1044500095E00E942D0A8C0F9D1FDF91CF9108954A
:104460000F931F93CF93DF938C01EB01FC018081AD
:104470009181009799F0428153812C813D814217AF
:10448000530750F0688179810E94AE338C819D8101
:10449000F8019583848313C00E9437328881998103
:1044A000F801918380838A819B81938382838C81AD
:1044B0009D8195838483198218821B821A821D82B2
:1044C0001C82DF91CF911F910F9108954F925F92BF
:1044D0006F927F92AF92BF92CF92DF92EF92FF9254
:1044E0000F931F93CF93DF93CDB7DEB7A1970FB68E
:1044F000F894DEBF0FBECDBF6C01990FEE08FF0828
:10450000F7FE3BC06DE283EC95E00E94080B8C0146
:10451000F094E094D094C094C11CD11CE11CF11C17
:1045200019A29E012F5D3F4F59013AE0432E512CB5
:10453000612C712CC701B601A30192010E946E315A
:104540008C2D9AE0299F80191124E1E0AE1AB10860
:104550008A3014F4805D01C0895CF50180836901B3
:104560007A01232B242B252B29F7B50183EC95E029
:104570000E94F00F800F911F2CC01C2D7D2DC701B4
:1045800019A29E012F5D3F4F79012AE0422E512C46
:10459000612C712C612FA30192010E946E318AE07F
:1045A000289F1019112491E0E91AF1081A3014F427
:1045B000105D01C0195CF7011083122F732FCA011F
:1045C000232B242B252B31F7B70183EC95E00E9498
:1045D000F00FA1960FB6F894DEBF0FBECDBFDF91EE
:1045E000CF911F910F91FF90EF90DF90CF90BF90F0
:1045F000AF907F906F905F904F900895BC0183ECD7
:1046000095E00C94F00FEF92FF920F931F93CF93CE
:10461000DF937C01C0E0D0E000E010E0F70184818E
:104620009581C817D90790F480819181009729F06E
:10463000FC01EC0FFD1F608101C060E083EC95E0A0
:104640000E94080B080F191F2196E8CFC801DF91BF
:10465000CF911F910F91FF90EF9008952F923F926D
:104660004F925F926F927F929F92AF92BF92CF9242
:10467000DF92EF92FF920F931F93CF93DF9300D0BF
:1046800000D0CDB7DEB760E08091B1050E94E5248F
:1046900060E08091B2050E94E52461E08091B4055C
:1046A0000E94E52461E08091B3050E94E524909189
:1046B000BF05E091B705F091B8058081892B808313
:1046C0008091C005E091BB05F091BC05908180957B
:1046D000892380838091B1050E94801C8C01809188
:1046E000B1050E94801C9801281B390B2C5F3F4F9D
:1046F0002930310538F4800F911F959587959924BD
:10470000939401C0912C0FEF13E0081B190B60E08C
:104710008091B4050E94E52460E08091B3050E9479
:10472000E52461E08091B1050E94E52461E080917B
:10473000B2050E94E5248091C205E091BD05F0918B
:10474000BE0590818095892380839091C105E09179
:10475000B905F091BA058081892B80838091B305DA
:104760000E94801C7C018091B3050E94801C9701EF
:10477000281B390B2C5F3F4F2930310528F48E0D53
:104780009F1D9595879501C0912CCC24CA9423E058
:10479000D22E7601E81AF90A61E08091B4050E94F0
:1047A000E52460E08091B1050E94E5248091BF0579
:1047B000E091B705F091B8059081809589238083B9
:1047C0009091C205E091BD05F091BE058081892BD5
:1047D00080838091B3050E94801C5C018091B105AB
:1047E0000E94801C6090B5057090B605611471043C
:1047F000D9F1BC01990F880B990B0E94CC341B0195
:104800002C01B501BB0C880B990B0E94CC349B0189
:10481000AC01C201B1010E94223420E030E040E846
:104820005FE30E94B5335B016C01B801012E000CFF
:10483000880B990B0E94CC34A60195010E94583533
:104840005B016C01B30180E090E00E94CA34A601D4
:1048500095010E94583520E030E040E85AE30E947C
:1048600058350E94943407C0BC016A197B09C601FF
:10487000861B970BBC01911002C060E070E01A83A8
:104880000983FC82EB827E836D83202F3A814E2D3B
:104890005C817E8180E090E026960FB6F894DEBFC2
:1048A0000FBECDBFDF91CF911F910F91FF90EF9081
:1048B000DF90CF90BF90AF909F907F906F905F9070
:1048C0004F903F902F900895282F3091420331321E
:1048D00008F04AC080911E038111FCCF90914103E2
:1048E00042E040931E0320931D032FEF20931C03EF
:1048F00010921B0330931A03E1E2F3E0AAEFB2E057
:1049000020E0321721F041914D932F5FFACF1092A2
:10491000F9022091F902990F922B9093F90290914C
:10492000F802913061F41092F8029091F90290939C
:10493000BB009091BC0093FDF8CF95EC01C095EEC3
:104940009093BC0090911E039230E1F390911C0370
:104950009F3F79F080911C03803241F080911C03CD
:10496000803331F084E005C081E003C082E001C003
:1049700083E0109220031092420310921F030895C7
:104980003FB7F8948091620690916306A091640607
:10499000B091650626B5A89B05C02F3F19F001967A
:1049A000A11DB11D3FBFBA2FA92F982F8827820FB5
:1049B000911DA11DB11DBC01CD0142E0660F771F05
:1049C000881F991F4A95D1F70895CF93DF9390E000
:1049D000FC01EA54F24F2491FC01EA5EF14F84910C
:1049E000882361F190E0880F991FFC01E45AF14F90
:1049F000C591D491FC01E450F24FA591B49161119D
:104A000009C09FB7F8948881209582238883EC9110
:104A10002E230BC0623061F49FB7F8948881322F47
:104A2000309583238883EC912E2B2C939FBF06C057
:104A30008FB7F894E8812E2B28838FBFDF91CF9119
:104A40000895CF92DF92EF92FF92CF93DF936B01A5
:104A50007C010E94C024EB01C114D104E104F104E3
:104A600079F00E94C0246C1B7D0B683E7340A0F35C
:104A700081E0C81AD108E108F108C851DC4FECCF39
:104A8000DF91CF91FF90EF90DF90CF9008951F922C
:104A90000F920FB60F9211242F933F938F939F93F2
:104AA000AF93BF9380915D0690915E06A0915F06E3
:104AB000B09160063091610623E0230F2D3720F47A
:104AC0000196A11DB11D05C026E8230F0296A11D68
:104AD000B11D2093610680935D0690935E06A093BE
:104AE0005F06B09360068091620690916306A09184
:104AF0006406B09165060196A11DB11D8093620602
:104B000090936306A0936406B0936506BF91AF913E
:104B10009F918F913F912F910F900FBE0F901F90FB
:104B20001895CF93DF93CDB7DEB7AB970FB6F89458
:104B3000DEBF0FBECDBF789484B5826084BD84B5DE
:104B4000816084BD85B5826085BD85B5816085BD88
:104B500080916E00816080936E0010928100809140
:104B600081008260809381008091810081608093C8
:104B70008100809180008160809380008091B100ED
:104B800084608093B1008091B00081608093B00018
:104B9000809191008260809391008091910081606A
:104BA000809391008091900081608093900080912B
:104BB000A10082608093A1008091A1008160809318
:104BC000A1008091A00081608093A00080912101CC
:104BD0008260809321018091210181608093210175
:104BE0008091200181608093200180917A0084600F
:104BF00080937A0080917A00826080937A0080911D
:104C00007A00816080937A0080917A008068809336
:104C10007A001092C100E0918305F091840581E053
:104C200090E09C0100908F0502C0220F331F0A9470
:104C3000E2F72083E0917F05F09180051082E091FA
:104C40008105F09182052FEC208310929005E09170
:104C50008505F091860540819C0100908B0502C07E
:104C6000220F331F0A94E2F7242B2083E09185055D
:104C7000F091860540819C0100908C0502C0220FB6
:104C8000331F0A94E2F7242B2083E0918505F091ED
:104C9000860540819C0100908D0502C0220F331FC4
:104CA0000A94E2F7242B2083E0918505F091860594
:104CB000208100908E0502C0880F991F0A94E2F7A8
:104CC00080958223808360E080E090E00E9402195A
:104CD000883024E5920709F4D5C0803234E5930783
:104CE00009F4D3C08938994809F4D2C060E087E656
:104CF00090E00E9402198734974409F4CCC081EAFD
:104D000090E00E94431A613081E6780709F4C6C03A
:104D10006F3F7F4F19F406E215E1F4C08FEB90E08E
:104D20000E94111A673523E8720709F4BAC0613886
:104D300034E9730709F4B8C0613185E1780709F4F3
:104D4000B6C0603295E1790709F4B4C0663225E156
:104D5000720709F3613835E1730709F4AEC06115D4
:104D6000744109F4ADC084ED90E00E94431A6031B3
:104D7000734509F4A8C087ED90E00E94431A61339F
:104D8000704809F4A3C08FEE90E00E94111A6732B8
:104D9000734909F49EC08EEF90E00E94431ABB272E
:104DA000A92F982F872F8335904209F495C084E06E
:104DB00090E00E94431A9B01811124C0211560E8F4
:104DC000360701F58091060290910702A091080232
:104DD00089839A83AB83AE014F5F5F4F63E089EBBA
:104DE00090E00E94DE0B60E080ED90E00E940219EE
:104DF000893929F08039C9F400E910E983C009E94B
:104E000010E080C0263275E1370709F484CF203FD7
:104E100089E8380709F463C0223595E8390709F4B1
:104E200061C021313C4A09F460C083ED90E00E94EA
:104E3000431ABB27A92F982F872F8336914909F44E
:104E400057C083ED90E00E94431A3DE6370F3230A1
:104E500008F451C0783909F44EC0773709F44BC0D3
:104E6000763109F448C0633D710509F446C0633DDD
:104E7000734D09F445C060E080E090E00E940219A3
:104E80008C0140C008E014E53DC000E214E53AC0E2
:104E900009E812E137C007E413E834C003E619E17A
:104EA00031C007E513E82EC001E814E92BC001E189
:104EB00015E128C000E215E125C001E815E122C096
:104EC00004E118E61FC000E113E51CC001E310E88F
:104ED00019C007E213E916C003E510E213C005E3A9
:104EE00017E710C009E817E70DC001E11CEA0AC086
:104EF00003E611E907C08B0105C003ED10E002C015
:104F000003ED13ED0E94D3181092DE051092DD051B
:104F10001093E2050093E105073533E8130709F420
:104F200099C108F0A5C0033570E2170709F4F3C171
:104F300008F047C0013195E1190709F42CC1B0F41C
:104F40000939110509F49EC138F40130110509F041
:104F50004DC280E091E1B0C1043531E0130709F49E
:104F60000FC10530154109F4A5C140C2063275E1F3
:104F7000170709F428C180F40032154109F036C240
:104F800083E194E09093E0058093DF0566E0A62E30
:104F9000B12C0BE813E030C2013825E1120709F407
:104FA000CFC10230164109F021C283E094E0909312
:104FB000E0058093DF05B6E0AB2EB12C04EE12E0E5
:104FC0001BC2043168E6160709F421C108F5003157
:104FD00083E5180709F403C178F40533154409F093
:104FE00005C280E090E19093E0058093DF056CE9D5
:104FF00070E088E397E0E4C1083034E5130709F472
:1050000059C10930184609F0F1C182E091E162C14D
:10501000033977E7170709F4D6C1A8F4033897E7EF
:10502000190709F40CC10938174709F0DFC183E1FA
:1050300094E09093E0058093DF0521E4A22EB12C4B
:1050400009E313E0D9C1063937E7130709F493C11F
:105050000133104809F0CAC183E194E19093E0055F
:105060008093DF0592E1A92EB12C07E213E0C4C1C1
:10507000083373E9170709F454C170F5073293E94F
:10508000190709F430C1B8F4023033E9130709F401
:1050900045C138F40039104909F0A8C183E194E111
:1050A000DBC0003283E9180709F404C10532134953
:1050B00009F40BC19BC1093223E9120709F434C179
:1050C00008F403C1013363E9160709F401C105338C
:1050D000134909F4FDC08AC1093884E91807C8F5E5
:1050E000073894E9190708F049C1013824E9120783
:1050F00009F429C190F4005413490230110508F055
:1051000075C183E194E09093E0058093DF05F5E6B7
:10511000AF2EB12C0CE712E06FC10638144909F02C
:1051200065C183E094E09093E0058093DF0580EE15
:1051300091E09093CA058093C90580E491E0909333
:10514000C8058093C7057BE3A72EB12C0CEF11E0B7
:1051500053C1053075EB170709F428C138F4013144
:105160001C4A09F043C183E194E1E0C0093025EB1A
:10517000120709F428C10530154C09F417C136C1CE
:1051800082E090E19093E0058093DF056CE970E0A8
:1051900084ED97E015C183E090E09093E005809363
:1051A000DF0580EE91E09093CA058093C90580E405
:1051B00091E09093C8058093C70573E0A72EB12CAA
:1051C00001E913E019C183E194E09093E005809335
:1051D000DF055CE0A52EB12C0FE713E00DC183E1E4
:1051E0009EE09093E0058093DF0580EE91E0909340
:1051F000CA058093C90580E491E09093C805809327
:10520000C70542E0A42EB12C0DE713E0F5C083E002
:1052100094E09093E0058093DF0580EE91E0909319
:10522000CA058093C90580E491E09093C8058093F6
:10523000C70533E0A32EB12C0AE713E0DDC082E0FE
:1052400091E19093E0058093DF0560E970E088EAE2
:1052500096E0B6C083E094E19093E0058093DF058B
:1052600080EE91E09093CA058093C90580E491E0B7
:105270009093C8058093C70582E0A82EB12C05E263
:1052800013E0BAC083E194E19093E0058093DF05D9
:1052900080EE91E09093CA058093C90580E491E087
:1052A0009093C8058093C7050DE1A02EB12C08E0AE
:1052B00013E0A2C084E090E19093E0058093DF05C5
:1052C00068ED70E080ED95E07BC080E091E102C088
:1052D00080E090E19093E0058093DF056CEC70E056
:1052E00084E095E06DC083E094E09093E0058093C6
:1052F000DF0580E991E09093CA058093C90580EFAE
:1053000090E09093C8058093C7051EE1A12EB12CB3
:105310000AEE12E071C087E194E108C083E094E0F6
:1053200005C083E194E002C083E096E19093E0053C
:105330008093DF05A3E0AA2EB12C01EE12E05CC041
:1053400083E194E002C087E094E09093E0058093CD
:10535000DF0580EE91E09093CA058093C90580E453
:1053600091E09093C8058093C705E5E4AE2EB12C7B
:1053700007E312E041C083E094E002C083E194E0DF
:105380009093E0058093DF0580EE91E09093CA054D
:105390008093C90580E491E09093C8058093C70588
:1053A0006BE2A62EB12C01ED11E026C088E090E161
:1053B0009093E0058093DF0560EB70E084E594E076
:1053C0000E94D11D17C080E090E19093E00580938A
:1053D000DF0560EC70E084E993E00E94D11D80E974
:1053E00091E09093CA058093C90504C01092C80546
:1053F0001092C70500E010E02091E005822F829511
:105400008F7090E0817099279093E4058093E30575
:105410000115110581F069E070E088EC91E00E94CF
:10542000F51DB501C8010E94F51D66E070E082EC33
:1054300091E00E94F51D60E083EC95E00E94291444
:1054400060E083EC95E00E941A188091E10590914C
:10545000E2058838944909F064C210928C0220EE6B
:105460003FEF40E050E060E070E083EC95E00E94A8
:10547000AF12A090ED05B090EE0580918D028111E4
:1054800007C08091DF0580FF03C05EE2A52EB12C2E
:105490008091E1059091E2058230964119F44EE247
:1054A000A42EB12C00E010E020E030E040E050E01D
:1054B00060E070E083EC95E00E9459108091DF0578
:1054C00080FD10C060E070E08091E9059091EA05F0
:1054D0000E94350D60E070E08091EB059091EC0545
:1054E0000E94350D8B988A9880910201877880936D
:1054F0000201A5988EB1877C8EB9409102018B2D57
:1055000099279C012370332755E0220F331F5A95AA
:10551000E1F7242B209302014EB19C012C7033271C
:10552000220F331F220F331F242B2EB944B39C01AB
:1055300020713327220F331F242B24BB4EB19C0133
:10554000207233273595279535952795242B2EB92D
:1055500020910201807C9927F3E095958795FA9533
:10556000E1F7822B809302018998899A8091020148
:10557000877880930201A5988EB1877C8EB920919F
:105580000201C50183709927A5E0880F991FAA958C
:10559000E1F7822B809302012EB1C5018C7099270F
:1055A000880F991F880F991F822B8EB924B3C501CC
:1055B00080719927880F991F822B84BB2EB1C5015A
:1055C000807299279595879595958795822B8EB9A9
:1055D00020910201C501807C992733E0959587953C
:1055E0003A95E1F7822B809302018998899A8A9AE9
:1055F000809101018778809301019D988DB1877C0E
:105600008DB94091DF055091E0058091E1059091C1
:10561000E20546FD1EC0889A88988898889820914F
:1056200000012CB122B32CB120910001889A40FDD9
:1056300010C0893822E1920761F0889A889888988A
:105640008898209100012CB122B32CB12091000147
:10565000889A8131954161F4889A889888988898C9
:10566000809100018CB182B38CB180910001889A45
:10567000FA01E470FF27889A88988898889844FFF0
:105680008CC0609100018CB192B37CB1309100016B
:105690006076262F229526952770807386958695AD
:1056A000682F622B9072892F90E095958795862BB5
:1056B000672F6870660F660F862B632F687198E0FE
:1056C000699FB0011124682B889A889A88988898D5
:1056D0008898809100012CB192B37CB1A091000117
:1056E0008076382F3295369537702073269526951B
:1056F000822F832B9072292F30E035952795282B08
:10570000872F8870880F880F282B8A2F887138E0A0
:10571000839F50011124822F8A29889A889A889819
:105720008898889870910001ACB132B32CB19091F7
:1057300000017076B72FB295B695B770A073A69595
:10574000A6957A2F7B2B3072A32FB0E0B595A79545
:10575000A72B2870220F220FA22B987178E0979F19
:10576000900111242A2B889A8C7FEF2B59F0287FE7
:1057700098E0899F50011124B22A66956695669536
:10578000A62A7CC0687F38E0839F50011124B62A86
:10579000269526952695A22A71C0909000018CB17D
:1057A00092B3BCB1A0910001889A889A8898889891
:1057B0008898309100012CB102B36CB18090000147
:1057C0003076A32EB12C15E0B594A7941A95E1F785
:1057D000207330E03595279535952795A22AB32A71
:1057E000007210E015950795A02AB12A687070E044
:1057F000660F771F660F771F9501262B372B682DB5
:10580000687178E0679F50011124A22AB32A889A10
:10581000292D2076322F32953695377080738695F4
:105820008695282F232B9072892F90E09595879548
:10583000822BB870BB0FBB0F8B2B2A2F287198E0DF
:10584000299F90011124822BB82A43FF03C0BA2458
:10585000AB24BA24EF2B91F09501207E3770C5015F
:10586000892F9927869586958695822B932BBA2C1E
:10587000AA24BB0CBB0CBB0CA82AB92A80918C02B1
:10588000882399F09501207CC5018827947065E0F4
:10589000969587956A95E1F76FE3A622BB24B694A7
:1058A000A794A82AB92AA22AB32A889A8B9A809107
:1058B00001018867809301019D9A8DB188638DB93C
:1058C00040FD14C00091CD051091CE050150110985
:1058D0002091CB053091CC052150310940E050E0BA
:1058E00060E070E083EC95E00E9459107FE1A7161C
:1058F0007FEFB706B1F486E08983AE014F5F5F4F5B
:1059000061E08AE390E00E94DE0B8091DF059091D8
:10591000E0058F7E9093E0058093DF0581E0809322
:105920008C0260E083EC95E00E9429141092D90566
:105930001092AF021092AE02109220031092420316
:1059400010921E0311E010931D031092F80284E1DF
:105950000E94601885E10E9460188091B9008E7FD6
:105960008093B9008091B9008D7F8093B90088E45D
:105970008093B80085E48093BC0080E997E1909320
:10598000B1028093B00281E997E19093B3028093D2
:10599000B20210931F0388E6809341031092200304
:1059A000109242036BE683E493E00E94EB1760E001
:1059B00083E493E00E94EB1781E00E94642461E09D
:1059C00089E30E94E52461E088E30E94E5248FE6F4
:1059D00095E00E94B60A892B19F000E010E015C08E
:1059E00069E672E08FE695E00E94F00F0E941E22A9
:1059F00064E670E080E090E00E942125E8CF8FE629
:105A000095E00E94B60A892B21F407301105BCF3FA
:105A1000A9C08FE695E00E947A0A833209F084C01B
:105A20006091910570919205CE01019601151105C5
:105A300041F40E940A10BE016F5F7F4F88EA95E033
:105A400020C00130110541F40E940A10BE016F5FB1
:105A50007F4F81EA95E015C00230110541F40E94A4
:105A60000A10BE016F5F7F4F8AE995E00AC00330DC
:105A7000110551F40E940A10BE016F5F7F4F83E948
:105A800095E00E94302238C00430110589F40E944C
:105A90000A1089819A81009719F00E94053103C08C
:105AA00060E070E0CB01709383026093820224C0B7
:105AB0000530110589F40E940A1089819A810097A6
:105AC00019F00E94053103C060E070E0CB017093D3
:105AD00085026093840210C00E940A1089819A8115
