:100000000C943D070C946E070C946E070C946E07CD
:100010000C946E070C946E070C946E070C946E078C
:100020000C946E070C946E070C946E070C946E077C
:100030000C946E070C946E070C946E070C946E076C
:100040000C946E070C946E070C946E070C946E075C
:100050000C946E070C946E070C946E070C94F925A3
:100060000C946E070C941C1F0C94441E0C946E0789
:100070000C946E070C946E070C946E070C946E072C
:100080000C946E070C946E070C946E070C946E071C
:100090000C94E91E0C94051E0C946E070C94FC172E
:1000A0000C946E070C946E070C946E070C946E07FC
:1000B0000C946E070C946E070C946E070C946E07EC
:1000C0000C946E070C946E070C946E070C94B61E7D
:1000D0000C94C61D0C946E070C94831E0C94871D03
:1000E0000C946E070D2210220322072247221422AD
:1000F00018221E22222226222C223022342247229B
:100100003A223E2242220C94121B0C94251B0C9482
:10011000231C0C9447220C9410220C94061B0C9464
:100120005F1C0C94431C0C9456190C9434220C94B0
:1001300003220C94891C0C9418220C948D220C948C
:1001400026220C941E1B0C9430220C94BA220C9480
:1001500022220C94F61A0C9424130C94C8320C949A
:1001600025130C940D220C94710B0C9485220C9485
:10017000F7090C94E9220C9470070C9434130C9436
:100180002C220C94181C0C9407220C9483070C94BA
:100190003A220C94D61B0C9414220C94A50E0C94A9
:1001A0004D240C9422130C9442220C941E220C9485
:1001B000B11C0C9423130C943E220C94B5190C948E
:1001C000523411007F96290001007F9628003A01E1
:1001D00055C0021010C10141C50400228040360103
:1001E00068B00100B102B011B40102B60302023BD3
:1001F000B701C63A0155F704A9512C82C0020D0D72
:10020000C1024300C20100C50400480048B4010017
:10021000B60302023BE00F0F211C0B0E0849983871
:10022000091103141000E10F0F2F2B0C0E06477657
:1002300037071104231E00B00100B30402000000C0
:10024000B40100D003074218D103000710D2020105
:1002500002D3020102D4020102C005123B000211C6
:10026000C103101088C50103C60102C80C00323654
:10027000450616377577540C00CC0100F6030101D2
:1002800000CF03008130ED0464031281E803851080
:1002900078CB05392C003402F70120EA020000B0C7
:1002A0000100B102001BB40100C00121C10111C550
:1002B000023F3CC701B5360148F20100260101E0CA
:1002C0000F0F26240B0E0954A8460C17090F070020
:1002D000E10F00191B0410072A47390306063038BE
:1002E0000F360100B80101C0010EB00100C10410B9
:1002F000100202C006003500000102C50104D2024E
:100300000104CA0100EA0180B903FF83577F967F89
:1003100096B60125C0065050013C1E08B4070240A5
:10032000002A2A0D787F01F20B1616030808080828
:1003300010041616FD03110235B2050C0C00333300
:10034000B70135BB012BC00104C20201FFC301117B
:10035000C40120C6010FD002A4A1E00ED000050EFA
:10036000150D3743470915121619E10ED000050D7A
:100370000C062D44400E1C1816193A01557F0AB080
:100380000103E2013FC00122E20100B00100C0010F
:100390000AB00100000000000000000000000000A2
:1003A00000000000FFFF0F000004006208000808C2
:1003B0000003000C01030B5A020306090303171084
:1003C0000403002305030017060309630703090C50
:1003D00008030C100903322210001600110001015D
:1003E0001200000013000100000130030101370278
:1003F0000301000D800200610201B0C1FFFF320065
:10040000010000010200000103003010090001009A
:100410000C000000900000800F000000100200009F
:100420001102EF001202000013028F01000500000C
:100430000105000002055F00010401000404000042
:10044000FFFF320007000001FFFF32000002000042
:100450000102000000000000000000000000000099
:1004600000000100A4000100FFFF0A006000002757
:100470000800080830001402310015373200040665
:100480003300160E340011223500001536000785A2
:1004900037000714380003143900200090001500BD
:1004A0001000100411003702290046002A004600FF
:1004B000070000001200890113000011FFFF9600E1
:1004C0001200B90101000001020000020300301017
:1004D000090001000A0000000D0000000E003000BD
:1004E000610001006A00000080000000810000003F
:1004F00082005F009200000193000107FFFF50009F
:1005000007000001E500F078010000010200000290
:10051000030030100400000005000000080007027E
:10052000090000000A0000000C0000000D0000009F
:100530000F00000010000000110007001200000072
:100540001300000007000100FFFFC8001000901614
:1005500011002702FFFF320012000D00FFFF3200E2
:100560001300001229000A002B000D00FFFF3200CB
:1005700020000000210000003000000031000404D1
:100580003200030035000504360008083700070470
:1005900038000303390007073C0004053D00080844
:1005A00060000027610001006A0000008000000078
:1005B0008100000082000000830000008400000031
:1005C0008500000090001000920000000700330139
:1005D000E5000080000001000100000102000007AA
:1005E00003003010040000000800020209000000AF
:1005F0000A0000000C0000000D0000000F000000C9
:10060000100000001100070012000000130000009D
:10061000FFFF32001000B01711000700FFFF0A00B3
:1006200012003A01FFFF0A001300001A29000C0013
:10063000FFFF0A0030000000310005053200040011
:1006400035000600360007073700050138000200B4
:10065000390007073C0004073D000708600000A7B9
:10066000610001006A00000021000000200000007D
:100670008000000081000000820000008300000074
:10068000840000008500000090001000920000002F
:1006900093000300950010019700000098000000EF
:1006A00007007301FFFF3200FF000100F3000800A4
:1006B00000000100010000010200000703003010EB
:1006C00008000203090000001000000011000700EC
:1006D0001200000013000000FFFF32001000B014F1
:1006E000FFFF0A0011000700FFFF0A0012008E0042
:1006F0001300000C29001500FFFF0A003000000065
:100700003100070132000000350003023600020408
:100710003700000038000702390000003C000302E7
:100720003D000304600000A7610001009000290063
:1007300007003301FFFF3200150030009A0010005F
:10074000110020001000283412000200130038109D
:10075000FFFF280012001200FFFF280010002034C5
:1007600013004530FFFF4600300000003100020456
:100770003200070333000403340004003500010491
:100780003600070737000503380010063900100649
:1007900001000001020000030300301008000808F7
:1007A0000A000800600000276100010090003E017F
:1007B0009200000193000001A0000030A30010008F
:1007C0000700010007002100070023000700330095
:1007D0000700330111001A001200213113006C00D0
:1007E0001400494210000008FFFF0A0011001A011E
:1007F000FFFF0A0011001A03FFFF0A0011001A0789
:10080000FFFF0A0011001A0FFFFF0A0011003A0F44
:10081000FFFF1E000100280102000001030030104C
:1008200007001210080003030B0000110C00000069
:100830000F000118150020005000010151000306AF
:100840005200080453000000540005065500060439
:10085000560003035700030358001000590000100E
:1008600007001200FFFF2800070013000700170011
:1008700000000000003E5B4F5B3E3E6B4F6B3E1C3A
:100880003E7C3E1C183C7E3C181C577D571C1C5E51
:100890007F5E1C00183C1800FFE7C3E7FF00182428
:1008A0001800FFE7DBE7FF30483A060E26297929D2
:1008B00026407F050507407F05253F5A3CE73C5A07
:1008C0007F3E1C1C08081C1C3E7F14227F22145FE4
:1008D0005F005F5F06097F017F006689956A60603F
:1008E00060606094A2FFA29408047E040810207E39
:1008F000201008082A1C08081C2A08081E101010BE
:10090000100C1E0C1E0C30383E3830060E3E0E0603
:10091000000000000000005F000000070007001456
:100920007F147F14242A7F2A122313086462364915
:100930005620500008070300001C224100004122FD
:100940001C002A1C7F1C2A08083E08080080703002
:100950000008080808080000606000201008040271
:100960003E5149453E00427F400072494949462177
:1009700041494D331814127F1027454545393C4AEB
:100980004949314121110907364949493646494902
:10099000291E00001400000040340000000814224A
:1009A00041141414141400412214080201590906B8
:1009B0003E415D594E7C1211127C7F494949363EB9
:1009C000414141227F4141413E7F494949417F099F
:1009D0000909013E414151737F0808087F00417FAA
:1009E00041002040413F017F081422417F404040A8
:1009F000407F021C027F7F0408107F3E4141413E40
:100A00007F090909063E4151215E7F0919294626C1
:100A10004949493203017F01033F4040403F1F20C5
:100A200040201F3F4038403F63140814630304789C
:100A300004036159494D43007F41414102040810BC
:100A400020004141417F04020102044040404040F7
:100A5000000307080020545478407F284444383865
:100A600044444428384444287F38545454180008D7
:100A70007E090218A4A49C787F0804047800447DB1
:100A800040002040403D007F1028440000417F404E
:100A9000007C047804787C080404783844444438A2
:100AA000FC1824241818242418FC7C080404084882
:100AB0005454542404043F44243C4040207C1C20D3
:100AC00040201C3C4030403C44281028444C90902E
:100AD000907C4464544C4400083641000000770088
:100AE00000004136080002010204023C2623263C95
:100AF0001EA1A161123A4040207A38545455592120
:100B00005555794122545478422155547840205407
:100B10005579400C1E527212395555555939545455
:100B2000545939555454580000457C410002457DC4
:100B3000420001457C407D1211127DF0282528F0ED
:100B40007C545545002054547C547C0A097F49321A
:100B5000494949323A4444443A324A4848303A4191
:100B600041217A3A42402078009DA0A07D3D42423A
:100B7000423D3D4040403D3C24FF2424487E4943C3
:100B8000662B2FFC2F2BFF0929F620C0887E090336
:100B900020545479410000447D413048484A32385D
:100BA0004040227A007A0A0A727D0D19317D262989
:100BB000292F28262929292630484D402038080881
:100BC000080808080808382F10C8ACBA2F102834B5
:100BD000FA00007B000008142A142222142A1408A8
:100BE0005500550055AA55AA55AAFF55FF55FF00B7
:100BF0000000FF00101010FF00141414FF0010106C
:100C0000FF00FF1010F010F0141414FC001414F77F
:100C100000FF0000FF00FF1414F404FC141417106C
:100C20001F10101F101F1414141F00101010F000BC
:100C30000000001F101010101F10101010F01000F6
:100C40000000FF101010101010101010FF10000006
:100C500000FF140000FF00FF00001F10170000FC41
:100C600004F414141710171414F404F40000FF0013
:100C7000F714141414141414F700F714141417149C
:100C800010101F101F141414F4141010F010F000A2
:100C9000001F101F0000001F14000000FC140000C3
:100CA000F010F01010FF10FF141414FF14101010A7
:100CB0001F00000000F010FFFFFFFFFFF0F0F0F05A
:100CC000F0FFFFFF0000000000FFFF0F0F0F0F0FEE
:100CD0003844443844FC4A4A4A347E02020606023A
:100CE0007E027E0263554941633844443C04407EA1
:100CF000201E2006027E020299A5E7A5991C2A491A
:100D00002A1C4C7201724C304A4D4D3030487848A4
:100D100030BC625A463D3E494949007E0101017E90
:100D20002A2A2A2A2A44445F444440514A444040E3
:100D3000444A51400000FF0103E080FF0000080822
:100D40006B6B083612362436060F090F06000018A2
:100D5000180000001010003040FF0101001F0101C9
:100D60001E00191D1712003C3C3C3C000000000016
:100D700000002100240027002A002D00300033004D
:100D800001010000040107010A010000090A02082C
:100D90000B0C0D070603040100000000000000001A
:100DA0000000000000000000000000000000000043
:100DB00000000000000011100F0000000000000003
:100DC0000000000000000000000000000000000023
:100DD000010210202008081020401020408002014D
:100DE0000201080402010102040810204080804032
:100DF0002010080402018004020180402010080431
:100E000002010804020101020408102040800102CE
:100E100004081020408000002200250028002B003C
:100E20002E003100340002010000050108010B0111
:100E300005050505070508080808020202020A0A56
:100E40000808040404040101010101010101030374
:100E5000030303030303040707070C0C0C0C0C0C1F
:100E60000C0C0202020206060606060606060B0B1C
:100E70000B0B0B0B0B0BC832523411241FBECFEFE0
:100E8000D1E2DEBFCDBF00E00CBF12E0A0E0B2E0D7
:100E9000E4E2F3E700E00BBF02C007900D92A83E2A
:100EA000B107D9F726E0A8EEB2E001C01D92A83F35
:100EB000B207E1F717E0CCE3D7E000E006C02197E6
:100EC0000109802FFE010E946439CB33D10780E0F5
:100ED0000807A9F70E9443260C9489340C9400005B
:100EE000EF92FF920F931F93DC01ED91FC91048C24
:100EF000F58DE02D780101E010E019951F910F911B
:100F0000FF90EF900895EF92FF920F931F93DC01F3
:100F1000ED91FC91048CF58DE02D7801890121E0A3
:100F200030E019951F910F91FF90EF90089508956B
:100F3000FC016370658B84819581268137816130E6
:100F400039F0633029F091878087338722870895AD
:100F5000318720879387828708958B988A9820917C
:100F60000201277820930201A5982EB1277C2EB983
:100F700070910201292F3327F901E370FF27A5E0C3
:100F8000EE0FFF1FAA95E1F7E72BE09302017EB178
:100F9000F901EC70FF27EE0FFF1FEE0FFF1FE72B8D
:100FA000EEB974B3F901E071FF27EE0FFF1FE72BD5
:100FB000E4BB7EB1F901E072FF27F595E795F59561
:100FC000E795E72BEEB970910201207C3327E3E02F
:100FD00035952795EA95E1F7272B2093020189980B
:100FE000899A20910201277820930201A5982EB1B9
:100FF000277C2EB9709102019C0123703327F5E004
:10100000220F331FFA95E1F7272B209302017EB1BF
:101010009C012C703327220F331F220F331F272BE5
:101020002EB974B39C0120713327220F331F272B55
:1010300024BB7EB19C0120723327359527953595C9
:101040002795272B2EB9709102019C01207C332714
:10105000F3E035952795FA95E1F7272B20930201C8
:101060008998899A8A9AFA01A091EA067FEF760F09
:1010700016160CF0C7C021913091020137783093D9
:101080000201A5983EB1377C3EB960910201322F32
:101090003370B0E23B9FA0011124462B4093020124
:1010A0006EB1322F3C70B4E03B9FA0011124462B5F
:1010B0004EB944B3322F3071330F342B34BB6EB181
:1010C000322F3072432F50E05595479555954795EF
:1010D000462B4EB930910201207C26952695269507
:1010E000232B209302018998899A711102C0672FDE
:1010F000BDCFAA23E1F301968A98209102012778B7
:1011000020930201A5982EB1277C2EB9609102018F
:10111000292F3327A90143705527B5E0440F551FE8
:10112000BA95E1F7462B409302016EB1A9014C70CC
:101130005527440F551F440F551F462B4EB964B316
:10114000A90140715527440F551F462B44BB6EB172
:10115000A901407255275595479555954795462BBA
:101160004EB940910201207C332753E035952795F5
:101170005A95E1F7242B209302018998899A2091AE
:101180000201277820930201A5982EB1277C2EB961
:10119000409102019C012370332765E0220F331F29
:1011A0006A95E1F7242B209302014EB19C012C702B
:1011B0003327220F331F220F331F242B2EB944B3A2
:1011C0009C0120713327220F331F242B24BB4EB1E7
:1011D0009C01207233273595279535952795242B2B
:1011E0002EB9409102019C01207C3327B3E0359554
:1011F0002795BA95E1F7242B209302018998899AC3
:101200008A9A75CF8B9A08958B988A98E2E0F1E0DC
:10121000208127782083A5982EB1277C2EB9A08124
:10122000292F3327A90143705527B5E0440F551FD7
:10123000BA95E1F74A2B4083AEB1A9014C7055270E
:10124000440F551F440F551F4A2B4EB9A4B3A90193
:1012500040715527440F551F4A2B44BBAEB1A9011D
:101260004072552755954795559547954A2B4EB948
:101270004081207C332753E0359527955A95E1F737
:10128000242B20838998899A208127782083A59808
:101290002EB1277C2EB940819C0123703327A5E015
:1012A000220F331FAA95E1F7242B20834EB19C0116
:1012B0002C703327220F331F220F331F242B2EB9FC
:1012C00044B39C0120713327220F331F242B24BBEE
:1012D0004EB19C012072332735952795359527957A
:1012E000242B2EB92081807C9927B3E09595879592
:1012F000BA95E1F7822B80838998899A8A9A8081AE
:1013000087788083A5988EB1877C8EB94081872F9E
:1013100099279C012370332755E0220F331F5A95DC
:10132000E1F7242B20834EB19C012C703327220F30
:10133000331F220F331F242B2EB944B39C0120717D
:101340003327220F331F242B24BB4EB19C01207264
:1013500033273595279535952795242B2EB9208150
:10136000807C9927A3E095958795AA95E1F7822B34
:1013700080838998899A808187788083A5988EB1A7
:10138000877C8EB92081CB0183709927B5E0880FC7
:10139000991FBA95E1F7822B80832EB1CB018C7017
:1013A0009927880F991F880F991F822B8EB924B314
:1013B000CB0180719927880F991F822B84BB2EB196
:1013C000CB01807299279595879595958795822B66
:1013D0008EB98081607C7727A3E075956795AA9583
:1013E000E1F7682B60838998899A8B9A0895EF9228
:1013F000FF920F931F93CF93DF937C01E90177FD59
:1014000069C157FD67C1FC0180859185681779071F
:101410000CF060C182859385481759070CF05AC1BA
:101420008091E906882341F0CE018F719927880FBA
:10143000991FC17CC82BD92B8A019B01C7010E942F
:101440009F238091EA06882309F438C18B988A98F3
:10145000F70182A593A5209102012778209302012C
:10146000A5982EB1277C2EB960910201292F332730
:10147000A9014370552775E0440F551F7A95E1F790
:10148000462B409302016EB1A9014C705527440FC1
:10149000551F440F551F462B4EB964B3A901407127
:1014A0005527440F551F462B44BB6EB1A90140720E
:1014B00055275595479555954795462B4EB94091DB
:1014C0000201207C3327B3E035952795BA95E1F7E3
:1014D000242B209302018998899A20910201277870
:1014E00020930201A5982EB1277C2EB940910201CC
:1014F0009C012370332715E0220F331F1A95E1F763
:10150000242B209302014EB19C012C703327220F13
:10151000331F220F331F242B2EB944B39C0120719B
:101520003327220F331F242B24BB4EB19C01207282
:1015300033273595279535952795242B2EB920915E
:101540000201807C992773E0959587957A95E1F75C
:10155000822B809302018998899A8A9A2C2F220FD4
:10156000220F220F80910201877880930201A598B3
:101570008EB1877C8EB980910201809302013EB1C9
:10158000CE018827987F892F9927AC014C70552769
:10159000440F551F440F551F432B4EB934B3AC01B4
:1015A00040715527440F551F432B44BB3EB1AC013E
:1015B000407255275595479555954795432B4EB9FC
:1015C00030910201807C992713E0959587951A95B3
:1015D000E1F7832B809302018998899A8091020117
:1015E000877880930201A5988EB1877C8EB980910F
:1015F0000201809302013EB1C07ED77003E0D69510
:10160000C7950A95E1F7CE018C709927880F991F2D
:10161000880F991F832B8EB934B3CE01807199271F
:10162000880F991F832B84BB3EB1CE01807299270E
:101630009595879595958795832B8EB98091020115
:10164000C07CDD2773E0D595C7957A95E1F7C82B67
:10165000C09302018998899A8091020187788093CA
:101660000201A5988EB1877C8EB98091020180938A
:1016700002019EB1822F8C70880F880F892B8EB942
:1016800094B3822F8071880F892B84BB3EB1922F37
:101690009072892F90E09595879595958795832BE6
:1016A0008EB980910201207C269526952695282BBF
:1016B000209302018998899A8B9A0CC0BE01F70188
:1016C00082A593A5DF91CF911F910F91FF90EF908D
:1016D0000C940409DF91CF911F910F91FF90EF902F
:1016E0000895DF92EF92FF920F931F93CF93DF93B2
:1016F000CDB7DEB72A970FB6F894DEBF0FBECDBFC9
:101700007C01862F8370D70155968C935597462F71
:10171000417060FF05C016962D913C91179703C04C
:10172000F70124813581D70119963C932E931897A0
:10173000442329F014962D913C91159703C0F7018D
:1017400026813781D7011B963C932E931A978230BE
:1017500041F0833041F0813011F088E405C088E227
:1017600003C088E901C088EF8A87F701248D358D91
:1017700030FF03C08A8580588A8731FF04C09A856C
:1017800080E489278A8733FF04C09A8588E0892707
:101790008A87D7015E968D919C915F9720FFD5C077
:1017A0001091EA068431B8E69B07F9F49A85892FEF
:1017B000881F8827881F8295880F880F807C96FD58
:1017C00002C020E001C020E298729A871F828260E6
:1017D000822B88878BE38987AE01495F5F4F63E087
:1017E00086EB90E00E94AD0789C08336E9E19E0751
:1017F00041F08138F4E99F0721F0813125E192071A
:1018000009F52A8527FF02C021602A872A8526FF3D
:1018100002C022602A87833639E1930719F48A854A
:101820008F730EC0813844E9940719F48A858F724A
:1018300007C08131954109F061C08A858F7E806C37
:101840008A875CC0112309F459C062E070E0F70197
:1018500077A366A326E030E031A720A7E2E2F0E01C
:10186000D7019B96FC93EE939A979D967C936E93EB
:101870009C9764E070E09F967C936E939E97D196C0
:101880003C932E93D09728E030E0D3963C932E9350
:10189000D2978536910521F58A85982F916084FD30
:1018A00002C09A8703C083ED89278A87442351F0B9
:1018B00082E890E0F70197A386A380E890E091A7E3
:1018C00080A732C280E890E0D70197969C938E93D0
:1018D000969782E890E099969C938E93989724C26D
:1018E0008235924501F58A85982F926084FD02C069
:1018F0009A8719C084ED89278A8715C02AE230E0CB
:10190000F70137A326A38BE290E091A780A74CE2D2
:1019100050E053A742A735A724A737A726A791AB26
:1019200080AB93AB82AB1111FFC186E390E0AE01B7
:10193000465F5F4F61E00E94AD078A8590E0D70166
:1019400093969C938E939297E6C02A858339B7E746
:101950009B0709F448C050F48435F1E09F0781F0FB
:10196000803234E5930709F081C03DC0863243E9F7
:101970009407C9F18930A5EB9A0709F077C033C005
:1019800087E390E0F70195A784A786E390E097A707
:1019900086A789E390E091AB80AB88E390E093ABBE
:1019A00082AB80E290E097A386A381E290E091A7CA
:1019B00080A782E290E093A782A7822F022E000CDC
:1019C000990B8827990F881F9927982F8827990F97
:1019D00026FD03C060E070E002C060E071E0886254
:1019E000682B792B82C040E052E0D70197965C9338
:1019F0004E93969741E052E099965C934E93989758
:101A000042E052E09B965C934E939A9740E152E0FD
:101A10009D965C934E939C9741E152E09F965C9318
:101A20004E939E9742E152E0D1965C934E93D097AD
:101A300043E152E0D3965C934E93D29727FD03C0C7
:101A400020E030E002C020E030E88632B3E99B07B6
:101A500031F08032944519F060E07AE602C060E02F
:101A600075E3622B732B80E094E035C080E290E058
:101A7000D70197969C938E93969781E290E09996E2
:101A80009C938E93989782E290E09B969C938E9382
:101A90009A9780E590E09D969C938E939C9781E524
:101AA00090E09F969C938E939E9782E590E0D196CE
:101AB0009C938E93D09783E590E0D3969C938E93DE
:101AC000D29727FD03C060E070E002C060E070E8DC
:101AD000776280E690E00E9404098A8586FD03C053
:101AE00060E070E002C060E071E081E090E00E94A0
:101AF00004098A8585FD03C060E070E002C068E0EB
:101B000070E083FD70616063F70173A362A383E0FB
:101B100090E00E940409D70155968C91559780FF5B
:101B200036C05C968D919C915D9792FD30C09696E3
:101B30008D919C91979798962D913C919997979616
:101B40003C932E93969799969C938E9398979C96F8
:101B50008D919C919D97D0962D913C91D1979D967A
:101B60003C932E939C97D1969C938E93D0979E9660
:101B70008D919C919F97D2962D913C91D3979F9652
:101B80003C932E939E97D3969C938E93D297F70176
:101B900002851385015011092085318521503109B5
:101BA00040E050E060E070E0C7010E949F23D70151
:101BB00016966D917C9117975E968D919C915F978B
:101BC0008732B3E99B0741F4F7012589225022307F
:101BD00018F400E210E002C000E010E08732F3E900
:101BE0009F0729F022273327201B310B04C020E256
:101BF00030E0201B310BD7015C964C9140FF45C073
:101C00001982D02E0A837B836C833D832E831091AF
:101C1000EA06111103C083E390E002C08EE090E079
:101C2000AE014F5F5F4F66E00E94AD071982DA8216
:101C3000111103C087E390E002C084E190E0AE019F
:101C40004F5F5F4F62E00E94AD07112389F0198258
:101C5000F701868D978D8734934819F081E090E0E5
:101C600002C088E190E0AE014F5F5F4F61E00AC0C3
:101C7000D7015C968C9180FF5AC040E050E060E054
:101C800083E190E00E94AD0752C08339B7E79B071C
:101C900079F160F48032F4E59F0751F1833827E74A
:101CA000920781F08435914089F510C0863243E96E
:101CB0009407F1F08930A5EB9A07D1F0853292496B
:101CC00029F504C0F70160A171A124C0600F711F44
:101CD0006150710981E390E00E940409B80182E338
:101CE00090E00E94040960E070E083E390E019C096
:101CF000D70190966D917C919197626081E094E01C
:101D00000E940409B80184E094E00BC0F70160A1CF
:101D100071A1626081E690E00E940409B8018AE640
:101D200090E00E94040903C086E190E000CE2A966C
:101D30000FB6F894DEBF0FBECDBFDF91CF911F91DC
:101D40000F91FF90EF90DF900895EF92FF920F9325
:101D50001F93DC011A960D911C911B9718962D91DB
:101D60003C911997ED91FC91048CF58DE02D7B0150
:101D700040E050E060E070E019951F910F91FF90F6
:101D8000EF9008958F929F92AF92BF92CF92DF9281
:101D9000EF92FF920F931F93CF93DF934C015B0160
:101DA0006A0161E089E30E94BA1F61E088E30E9452
:101DB000BA1F67E17DEC8FE496E00E94A50ECFE4A8
:101DC000D6E083E08C8B198A188A87E19DEC9B8B87
:101DD0008A8B8EE390E09D878C878CE791E09F87CC
:101DE0008E8769EC72E0CE010E94641FE12CF12C19
:101DF00003E010E020EF30E048E651E068E270E0F8
:101E0000CE010E944D2485E08C8B1B8A1A8A198A88
:101E1000188A88E290E09D878C870FE010E01F878A
:101E20000E87C4010E94122189E690E09D878C876D
:101E30001F870E8765ED72E0CE010E94641F8CE85B
:101E400090E09D878C871F870E87C5010E94122115
:101E50008DEC90E09D878C871F870E8765ED72E083
:101E6000CE010E94641F8BEE90E09D878C871F87B8
:101E70000E87C601DF91CF911F910F91FF90EF90D8
:101E8000DF90CF90BF90AF909F908F900C941221D5
:101E90006F927F928F929F92AF92BF92CF92DF927A
:101EA000EF92FF920F931F93CF93DF934B015A0151
:101EB0003901E801F70125E0209363064081487F5E
:101EC00022812C7F58E0259F90011124342B4481DE
:101ED000469546954695242B1092600610925F0613
:101EE0003093620620936106DB012D913C91280F0F
:101EF000391FECE3F0E0C901BF010E9450398B01AA
:101F000044EC4603C001479F900D1124280F391F50
:101F1000D4012D933C93D5012D913C91260F371F71
:101F2000C901BF010E9450397B014603C001479F90
:101F3000900D1124280F391FF50131832083D3011F
:101F40008D919C911197860F971F8D939C9361E0C3
:101F500089E30E94BA1F61E088E30E94BA1FF4017E
:101F6000808191810A9784F48881998190935C069D
:101F700080935B06D0925E06C0925D0667ED72E0CC
:101F80008FE496E00E94641F8881998190935C069B
:101F900080935B06D0925E06C0925D06D4018D915F
:101FA0009C910E9412211016110624F5F5018081E2
:101FB00091810A9784F48A819B8190935C06809337
:101FC0005B06D0925E06C0925D0667ED72E08FE41C
:101FD00096E00E94641F8A819B8190935C068093A7
:101FE0005B06D0925E06C0925D06D5018D919C91F4
:101FF0000E9412211E141F0424F5F3018081918197
:102000000A9784F48C819D8190935C0680935B0693
:10201000D0925E06C0925D0667ED72E08FE496E0B6
:102020000E94641F8C819D8190935C0680935B0667
:10203000D0925E06C0925D06D3018D919C910E9464
:10204000122160E089E30E94BA1F60E088E3DF911B
:10205000CF911F910F91FF90EF90DF90CF90BF90A5
:10206000AF909F908F907F906F900C94BA1FCF93FA
:1020700081E08093640388E6809386031092650371
:10208000109287038BE390E00E941C2080E00E9466
:10209000872141E06EE088E60E94452110921B03F3
:1020A00080931A0390E08E309105ECF38FEC93E06F
:1020B0000E9434138FEC93E00E9434138FEC93E072
:1020C0000E9434138FEC93E00E9434138FEC93E062
:1020D0000E9434138FEC93E00E9434138FEC93E052
:1020E0000E943413C82F8FEC93E00E94341320E039
:1020F00030E03C2F822B932B9093F5028093F402D7
:102100008FEC93E00E943413C82F8FEC93E00E9471
:10211000341320E030E03C2F822B932B9093FB0272
:102120008093FA028FEC93E00E943413C82F8FEC57
:1021300093E00E94341320E030E03C2F822B932B5D
:102140009093F9028093F8028FEC93E00E9434138D
:10215000C82F8FEC93E00E94341320E030E03C2F36
:10216000822B932B9093F7028093F6026091F402F6
:102170007091F502072E000C880B990B0E942E38E7
:1021800020E030E04AEA53E40E94843728EB3EE145
:1021900042E152E40E9413370E94F6377093F50231
:1021A0006093F402CF9108952F923F924F925F92E5
:1021B0006F927F928F929F92AF92BF92CF92DF9257
:1021C000EF92FF920F931F93CF93DF9361E089E328
:1021D0000E94BA1F61E088E30E94BA1F10920303B5
:1021E0001092020366E476E68FE496E00E94A50E64
:1021F00083E08093630600E018EF27E430E045E0D9
:1022000050E068E171E08FE496E00E94121BE12C3F
:10221000F12CCC24C394D12CC3E2D0E0BAEB2B2E0A
:1022200033243A941EEDA12EBB24BA948FEFE81A02
:10223000F80A82E0C80ED11CAC0CBD1C4E01880C03
:10224000991C8FEF881A980AB701685E7E4F00E0EC
:1022500018EF9401E8E26E2E712C6C1A7D0AA3012E
:102260008FE496E00E94121BF8E24F2E512C4E187C
:102270005F089601A201BE01685E7E4F8FE496E082
:102280000E94121B68E171E06E197F099401A3019D
:102290008FE496E00E94121B9601A20168E171E0B2
:1022A0006C1B7D0B8FE496E00E94121BEC16FD0662
:1022B0004CF4B7FCBBCF219782E0280E311CA20C56
:1022C000B31CB4CF20E030E04DE150E06CE271E0AF
:1022D0008FE496E00E941E1B20E030E045E150E0D4
:1022E0006CE271E08FE496E00E941E1B20E030E07B
:1022F00049E150E060E371E08FE496E00E941E1B2C
:1023000020E030E049E150E068E271E08FE496E0DF
:102310000E941E1B44244394512CE12CF12CC4E058
:10232000D0E048EF642E77247A940DEF1FEF5CE243
:10233000252E332433948FEFE81AF80A82E0480EF2
:10234000511C040D151D470184ED881A8EEF980A63
:1023500020E030E06E0189E1C80ED11CA601B40175
:102360008FE496E00E941E1B5101AE18BF0820E0CA
:1023700030E0A601B5018FE496E00E941E1B20E02C
:1023800030E099E1C92ED12CCC1ADD0AA601B401A6
:102390008FE496E00E941E1B20E030E0A601B5010C
:1023A0008FE496E00E941E1B670189E1C80ED11CD4
:1023B00020E030E0A6015E0184EDA81A8EEFB80A95
:1023C000B5018FE496E00E941E1B20E030E0A601DC
:1023D0006101CC1ADD0AB6018FE496E00E941E1B53
:1023E00029E1822E912C8E189F0820E030E0A40174
:1023F000B5018FE496E00E941E1B20E030E0A401AE
:10240000B6018FE496E00E941E1BEC16FD064CF40C
:1024100017FD91CF219782E0680E711C060D171DE4
:102420008ACF109262061092610610926006109296
:102430005F0689E091E090935C0680935B06CEE1B5
:10244000D0E0D0935E06C0935D068091F402909137
:10245000F5020E9412218DE290E090935C06809339
:102460005B068CE791E090935E0680935D066AEDD3
:1024700072E08FE496E00E94641F8FE1E82EF12C59
:1024800003E010E020EF30E048E651E068E270E061
:102490008FE496E00E944D2485E080936306D093FC
:1024A0005C06C0935B06CCE3D0E0D0935E06C0939D
:1024B0005D068091FC029091FD020E94122185E54B
:1024C00090E090935C0680935B06D0935E06C09389
:1024D0005D0665ED72E08FE496E00E94641F89E678
:1024E00090E090935C0680935B06D0935E06C09369
:1024F0005D068091FE029091FF020E94122180EA07
:1025000090E090935C0680935B06D0935E06C09348
:102510005D0665ED72E08FE496E00E94641F89EB32
:1025200090E090935C0680935B06D0935E06C09328
:102530005D0680910003909101030E94122183E0C7
:102540008093630682E890E090935C0680935B063C
:1025500086E990E090935E0680935D0684E396E0C2
:102560000E941A2182E390E090935C0680935B06C0
:10257000C8ECD0E0D0935E06C0935D068DE296E095
:102580000E941A218CE890E090935C0680935B0691
:10259000D0935E06C0935D0686E296E00E941A2103
:1025A00082ED90E090935C0680935B06D0935E068C
:1025B000C0935D068FE196E00E941A2160E089E3F6
:1025C0000E94BA1F60E088E3DF91CF911F910F91C5
:1025D000FF90EF90DF90CF90BF90AF909F908F9043
:1025E0007F906F905F904F903F902F900C94BA1F08
:1025F0000895863308F0865390917B00282F287029
:10260000977F922B90937B008770806480937C00EF
:1026100080917A00806480937A0080917A0086FDB0
:10262000FCCF809178002091790090E0922B089562
:1026300085ED8093BC008091BC0084FDFCCF10929E
:10264000CE030895089508950895E0911B038091A5
:102650001A03E81730F4F0E0E857FC4F808190E06F
:1026600008958FEF9FEF089590911B0380911A03B7
:10267000981750F4E92FF0E0E857FC4F208130E044
:102680009F5F90931B0302C02FEF3FEFC901089596
:102690000F931F93CF93DF93EC01162F8091630369
:1026A000811102C00E9456228B988A988091020163
:1026B000877880930201A5988EB1877C8EB940916E
:1026C00002018D2F99279C012370332755E0220F9B
:1026D000331F5A95E1F7242B209302014EB19C0140
:1026E0002C703327220F331F220F331F242B2EB9B8
:1026F00044B39C0120713327220F331F242B24BBAA
:102700004EB19C0120723327359527953595279535
:10271000242B2EB920910201807C9927F3E0959516
:102720008795FA95E1F7822B809302018998899A1F
:1027300080910201877880930201A5988EB1877CF1
:102740008EB920910201CE0183709927A5E0880FF0
:10275000991FAA95E1F7822B809302012EB1CE0139
:102760008C709927880F991F880F991F822B8EB91B
:1027700024B3CE0180719927880F991F822B84BBC7
:102780002EB1CE018072992795958795959587955D
:10279000822B8EB980910201C07CDD2743E0D59564
:1027A000C7954A95E1F7C82BC09302018998899A89
:1027B0008A9A809101018778809301019D988DB15B
:1027C000877C8DB961E070E080E090E00E94F61FA8
:1027D000889A889888988898609100018CB1A2B3F3
:1027E0004CB100910001889A889A889888988898B6
:1027F000E0910001FCB132B32CB1C0910001889A84
:10280000115017FFE5CF889A8B9A90910101986734
:10281000909301019D9A9DB198639DB9487050E0D5
:10282000440F551F440F551F087198E0099F800100
:102830001124402B512BA072B0E0B595A7954A2BDF
:102840005B2B807390E09595879595958795482BA0
:10285000592B607670E0B5E075956795BA95E1F70C
:10286000462B572B542F44272870220F220F8C2FD2
:10287000887198E0899FE00111249C2F922B30727F
:10288000232F30E035952795292B9F2F9073969510
:102890009695922B2E2F2076229526952770292B00
:1028A000CA01822BDF91CF911F910F910895FF9262
:1028B0000F931F93CF93DF93EC0160E00E944813C6
:1028C0008C0161E0CE010E944813F82E62E0CE0137
:1028D0000E94481320E030E0302F222711270027E4
:1028E00040E050E05F2D60E070E0042B152B262BBC
:1028F000372B492F50E060E070E0CB01BA01602B2C
:10290000712B822B932BDF91CF911F910F91FF9011
:1029100008950F931F93CF93DF938C0160E00E9483
:102920004813EC0161E0C8010E944813AC01CE01DC
:10293000A0E0B0E0DC019927882760E070E08C011E
:102940009D01042B152B262B372BC901B801DF91D4
:10295000CF911F910F9108952F923F924F925F92C6
:102960006F927F929F92AF92BF92CF92DF92EF923F
:10297000FF920F931F93CF93DF9300D000D0CDB77A
:10298000DEB760E080913D060E94BA1F60E0809152
:102990003E060E94BA1F61E0809140060E94BA1F65
:1029A00061E080913F060E94BA1F90914B06E09132
:1029B0004306F09144068081892B808380914C06E8
:1029C000E0914706F09148069081809589238083A5
:1029D00080913D060E94F9128C0180913D060E9473
:1029E000F9129801281B390B2C5F3F4F2930310514
:1029F00038F4800F911F959587959924939401C081
:102A0000912C0FEF13E0081B190B60E0809140063A
:102A10000E94BA1F60E080913F060E94BA1F61E0E9
:102A200080913D060E94BA1F61E080913E060E949F
:102A3000BA1F80914E06E0914906F0914A069081B6
:102A400080958923808390914D06E0914506F09111
:102A500046068081892B808380913F060E94F9126F
:102A60007C0180913F060E94F9129701281B390BC7
:102A70002C5F3F4F2930310528F48E0D9F1D959511
:102A8000879501C0912CCC24CA9423E0D22E7601E4
:102A9000E81AF90A61E0809140060E94BA1F60E0DE
:102AA00080913D060E94BA1F80914B06E09143063B
:102AB000F0914406908180958923808390914E0601
:102AC000E0914906F0914A068081892B80838091AC
:102AD0003F060E94F9125C0180913D060E94F912A6
:102AE000609041067090420661147104D9F1BC01F6
:102AF000990F880B990B0E942E381B012C01B501F0
:102B0000BB0C880B990B0E942E389B01AC01C201B3
:102B1000B1010E94843720E030E040E85FE30E948A
:102B200012375B016C01B801012E000C880B990B68
:102B30000E942E38A60195010E94E3385B016C01CA
:102B4000B30180E090E00E942C38A60195010E941C
:102B5000E33820E030E040E85AE30E94E3380E9486
:102B6000F63707C0BC016A197B09C601861B970BA3
:102B7000BC01911002C060E070E01A830983FC82FE
:102B8000EB827E836D83202F3A814E2D5C817E8186
:102B900080E090E026960FB6F894DEBF0FBECDBF62
:102BA000DF91CF911F910F91FF90EF90DF90CF9029
:102BB000BF90AF909F907F906F905F904F903F90AD
:102BC0002F9008952F923F924F925F926F927F9233
:102BD0008F929F92AF92BF92CF92DF92EF92FF922D
:102BE0000F931F93CF93DF93CDB7DEB76B970FB6DD
:102BF000F894DEBF0FBECDBF9B8F8A8F5B011A0199
:102C0000D22E1F830E833701C982DC0158962D9185
:102C10003C9159972115310509F0E6C018968D9120
:102C20009C911997681779070CF0CDC11A968D9170
:102C30009C911B97481759070CF0C5C18C2C912CFF
:102C4000FB0126E0C29EE00DF11D1124FB87EA87FF
:102C50001E161F060CF0B7C1A40183E0440F551FD8
:102C60008A95E1F75D874C87CA01820D931D18167E
:102C700019060CF0A8C157968C91811104C05FEA27
:102C80005D1508F4D394AA8DBB8DED91FC9111973D
:102C90000680F781E02DCD011995B5E0DB9EC001DE
:102CA0001124F5013596FF87EE87BB82AA822501A4
:102CB0009C012A193B09398B288BA101485F5F4F82
:102CC0005B8B4A8BE889F989E40DF51DE059F74FD4
:102CD0005491588761013D822C82888580FF13C002
:102CE000AA8DBB8DED91FC91B981B13031F4008496
:102CF000F185E02D2E813F8116C00284F385E02D01
:102D0000EE80FF801AC0EE81FF81E615F705F1F035
:102D1000AA8DBB8DED91FC91B981B13051F4008445
:102D2000F185E02D9301A601B2018A8D9B8D199545
:102D30000DC00284F385E02D7301840194014C8160
:102D40005D816A817B818A8D9B8D1995E885E695E9
:102D5000E887FFEFCF1ADF0A2C813D81280D391D4E
:102D60003D832C834A895B89C416D50609F0B5CF0B
:102D70005FEF451A550A8A819B81880D991D9B83B7
:102D80008A83AE85BF854A165B0609F09BCFEE812C
:102D9000FF81E615F70509F4F4C0EA8DFB8DA081EB
:102DA000B181F981F13079F4B5016B5F7F4F1C96E9
:102DB000ED91FC911D97830128E030E0A1018A8DFF
:102DC0009B8D1995DEC06A857B85681979091A96ED
:102DD000ED91FC911B9773010C851D859401A10158
:102DE0008A8D9B8D1995CDC0F9013496E491DE1A38
:102DF000F901329685919491B7E0DB9E800D911D8B
:102E00001124F901259134913B8B2A8BFC012591EA
:102E100034912901FC013296C490319634913E8759
:102E2000329614913196D4904981423058F0612EF7
:102E3000012E000C77088D2D0D2C000C990B998715
:102E4000888704C019861886612C712CAA8DBB8DC9
:102E5000ED91FC9111970680F781E02DCD01199538
:102E6000B9818B2E912C689CC001699C900D789C37
:102E7000900D1124FC01EA0DFB1DFD87EC871A82E1
:102E8000712C612CE12F110FFF0B95012E0F3F1FAD
:102E90003B872A87AC0CB11CA5014E0F5F1F5F8BCF
:102EA0004E8BC1018D0D911DD7FC9A95998F888FFE
:102EB0009E85691608F065C0862D90E04885598585
:102EC000480F591F489D9001499D300D589D300D68
:102ED0001124D101A20FB31FB98BA88BEC85FD85FE
:102EE000FD83EC83AA84BB84DA80FA85DF1A288DFF
:102EF000398D280F391F3D8B2C8B8D2D8A0D4E89D6
:102F00005F89A416B506C1F1877041F4C20101962C
:102F1000EA89FB89E40DF51D74902C0177FE21C030
:102F2000AA8DBB8DED91FC91B981B13061F4008423
:102F3000F185E02D2E813F814C895D89B5018A8D17
:102F40009B8D19950EC00284F385E02DEE80FF80E5
:102F500084019401488959896C817D818A8D9B8D7A
:102F60001995770CEFEFAE1ABE0A2C813D81280D22
:102F7000391D3D832C83C1CF3A813C0D3A83639444
:102F800097CFAA8DBB8DED91FC9111970288F389A3
:102F9000E02DCD016B960FB6F894DEBF0FBECDBF0E
:102FA000DF91CF911F910F91FF90EF90DF90CF9025
:102FB000BF90AF909F908F907F906F905F904F9059
:102FC0003F902F9019946B960FB6F894DEBF0FBE0A
:102FD000CDBFDF91CF911F910F91FF90EF90DF90C8
:102FE000CF90BF90AF909F908F907F906F905F90A9
:102FF0004F903F902F9008951F920F920FB60F920F
:1030000011240BB60F922F933F934F935F936F93BF
:103010007F938F939F93AF93BF93EF93FF93809191
:10302000B900887F803609F49CC068F5883209F4BD
:103030005BC090F4803109F454C038F4882309F45B
:10304000F6C0883009F44DC0F6C0883109F44CC090
:10305000803209F45DC0EFC0803409F468C048F4E0
:10306000803309F455C0883309F0E5C08093CC0360
:10307000D8C0803509F44FC0883509F45DC0883464
:1030800009F0D9C0D6C0883909F4C7C0A8F4883778
:1030900009F467C038F4883609F463C0803709F44E
:1030A00060C0C9C0883809F4B8C0803909F45FC06D
:1030B000803809F0C0C05BC0803B09F486C038F49A
:1030C000803A09F466C0883A09F47FC0B4C0803CF5
:1030D00009F4A7C0883C09F4A4C0883B09F48AC05D
:1030E000AAC08091C90310C09091CB038091CA03FC
:1030F000981770F5E091CB0381E08E0F8093CB039E
:10310000F0E0E855FC4F80818093BB0085EC86C0E1
:103110008093CC038EC0E091CB0381E08E0F80932F
:10312000CB038091BB00F0E0E855FC4F8083909189
:10313000CB038091CA036EC0E091CB0381E08E0F78
:103140008093CB038091BB00F0E0E855FC4F808377
:103150008091CD0381116DC081E08093C80384EA22
:1031600061C083E08093CE0310926203CFCF809141
:103170006203803208F051C0E091620381E08E0F5B
:10318000809362038091BB00F0E0EE5BFC4F808394
:10319000BDCF85EC8093BC001092CE03809162037A
:1031A000803230F4E0916203F0E0EE5BFC4F10827D
:1031B0006091620370E0E0911E03F0911F0382E4CE
:1031C00093E019951092620336C084E08093CE0399
:1031D0001092410310924003E0911C03F0911D03F3
:1031E000199580914003811105C081E080934003CF
:1031F00010922003E091410381E08E0F8093410300
:10320000F0E0E05EFC4F80818093BB009091410331
:1032100080914003981708F479CF85E88093BC002B
:103220000AC085EC8093BC001092CE0304C01092BB
:10323000CC030E941813FF91EF91BF91AF919F9122
:103240008F917F916F915F914F913F912F910F904F
:103250000BBE0F900FBE0F901F901895409140032A
:10326000262F30E0240F311D21323105DCF420916E
:10327000CE032430C9F4FC0180E090E0861758F4B6
:10328000309140032191DC01A05EBC4FA30FB11D22
:103290002C930196F3CF80914003680F6093400315
:1032A00080E0089581E0089582E008956F927F9212
:1032B0008F929F92AF92BF92CF92DF92EF92FF9246
:1032C0000F931F93CF93DF93EC014B015A016901D8
:1032D0003801E881F9810680F781E02D1995E881B0
:1032E000F9810684F785E02D87019601A501B401D7
:1032F000CE011995A501460D571D41505109E88190
:10330000F9810684F785E02D9601B401CE01199567
:10331000E881F9810484F585E02D9301A501B401CC
:10332000CE011995C80CD91CB60161507109E8810C
:10333000F9810484F585E02D9301A501CE0119954D
:10334000E881F9810288F389E02DCE01DF91CF91E8
:103350001F910F91FF90EF90DF90CF90BF90AF90B3
:103360009F908F907F906F9019948F929F92AF92C1
:10337000BF92CF92DF92EF92FF920F931F93CF9362
:10338000DF934C016B015A01E901DC01ED91FC91E5
:103390006217730781F40417150724F48B2D580165
:1033A000042F182F0A191B0998012F5F3F4F008C1B
:1033B000F18DE02D12C04017510709F52617370788
:1033C00024F48D2D6901C62FD82F9E012C193D099B
:1033D0002F5F3F4F028CF38DE02D8701A501B601D1
:1033E000C4011995DF91CF911F910F91FF90EF903C
:1033F000DF90CF90BF90AF909F908F900895068000
:10340000F781E02D1995D401ED91FC910088F189A7
:10341000E02D9E01A501B601C4011995D401ED91DD
:10342000FC910288F389E02DC401DF91CF911F91B7
:103430000F91FF90EF90DF90CF90BF90AF909F9053
:103440008F901994EF92FF920F931F93DC011A96BD
:103450000D911C911B9718962D913C911997ED9108
:10346000FC91048CF58DE02D7B0140E050E060E0A4
:1034700070E019951F910F91FF90EF9008954F9272
:103480005F926F927F928F929F92AF92BF92CF92F4
:10349000DF92EF92FF920F931F93CF93DF936C0114
:1034A0002B015A0139014801DC01ED91FC910680A4
:1034B000F781E02D1995E201640C751CD601ED91A0
:1034C000FC91C615D7055CF40484F585E02D8701D1
:1034D0009401A501BE01C60119952196EFCF02887E
:1034E000F389E02DC601DF91CF911F910F91FF90DD
:1034F000EF90DF90CF90BF90AF909F908F907F9094
:103500006F905F904F9019948F929F92AF92BF925D
:10351000CF92DF92EF92FF920F931F93CF93DF939F
:10352000EC015B014A016901E881F9810680F781BC
:10353000E02D199595012C0D3D1D21503109E88193
:10354000F9810088F189E02D78018401A401B50199
:10355000CE011995E881F9810288F389E02DCE0129
:10356000DF91CF911F910F91FF90EF90DF90CF905F
:10357000BF90AF909F908F9019948F929F92AF922F
:10358000BF92CF92DF92EF92FF920F931F93CF9350
:10359000DF93EC015B014A0169017801E881F9815F
:1035A0000680F781E02D1995C80CD91C86010150C1
:1035B0001109E881F9810088F189E02D9501A401C4
:1035C000B501CE011995E881F9810288F389E02DD2
:1035D000CE01DF91CF911F910F91FF90EF90DF907F
:1035E000CF90BF90AF909F908F901994EF92FF92E1
:1035F0000F931F93DC01ED91FC91048CF58DE02D70
:1036000019951F910F91FF90EF9008950F931F93BD
:10361000DC01ED91FC91028CF38DE02D19951F9149
:103620000F9108950F931F93DC01ED91FC91008C95
:10363000F18DE02D19951F910F910895DC01ED9109
:10364000FC910480F581E02D19942F923F924F92C6
:103650005F926F927F928F929F92AF92BF92CF9222
:10366000DF92EF92FF920F931F93CF93DF9300D0DF
:1036700000D0CDB7DEB72C017E836D836A0159017E
:10368000C801FC82EB824801841A950A97FE03C0A8
:1036900091948194910835012D813E81621A730ABB
:1036A00077FE03C0719461947108681479045CF426
:1036B0003A2D2B2D5C01832F922F3D812E81DE82AE
:1036C000CD82C32ED22EAD81BE81AA16BB065CF47C
:1036D0003C2D2D2D6C01832F922F3D812E81BE829A
:1036E000AD82A32EB22E85012D813E81021B130BCC
:1036F0001C012C183D0837FE03C031942194310879
:10370000780117FF03C03FEFE31AF30AF594E7943B
:10371000C816D9062CF08FEF9FEF9A83898304C0D7
:10372000A1E0B0E0BA83A9832D813E81A216B30641
:1037300024F1D201ED91FC910084F185E02D2B81E3
:103740003C816814790424F44D815E81B60103C084
:10375000A6016D817E81C2011995E218F308F7FE7A
:1037600006C029813A81C20ED31EE00EF11E8D8162
:103770009E8101969E838D83D7CF26960FB6F894AF
:10378000DEBF0FBECDBFDF91CF911F910F91FF9094
:10379000EF90DF90CF90BF90AF909F908F907F90F1
:1037A0006F905F904F903F902F9008950F931F93CD
:1037B000CF93DF93FC01A685B7858D01005C1F4F79
:1037C000E8018881998101968F739927AD014E5B3D
:1037D0005F4FEA012881398128173907D1F3E801C1
:1037E00028813981A20FB31F6C93A685B785A05C91
:1037F000BF4F11969C938E93A689B7892C9181E037
:1038000090E0078C02C0880F991F0A94E2F7822B80
:103810008C9381E081A30488F589E02D8081806408
:10382000808381E090E0DF91CF911F910F91089507
:10383000FC0181A1882329F0A489B5898C9186FF98
:10384000FBCF11A20895FC01A485B585FD01E05CC4
:10385000FF4F20813181329680819181281739076D
:1038600079F080819181A80FB91F8C9120813181DD
:103870002F5F3F4F2F7333273183208390E00895CC
:103880008FEF9FEF0895DC011C96ED91FC911D9741
:10389000DF01A05CBF4F2D913C91119712968D9145
:1038A0009C9111972817390739F08D919C91E80F59
:1038B000F91F808190E008958FEF9FEF0895FC013C
:1038C00024853585F901E05CFF4F80819181329636
:1038D00020813181821B930B8F7399270895FB01FF
:1038E000E05CFF4F20813181DB01AE5BBF4F4D912A
:1038F0005C912F5F3F4F2F7333274217530741F0DF
:1039000040815181DB01A40FB51F8C93318320834B
:103910000895CF92DF92EF92FF920F931F93CF9370
:10392000DF936C01EB017B01E40EF51E00E010E07B
:10393000CE15DF0561F06991D601ED91FC91019002
:10394000F081E02DC6011995080F191FF1CFC801AC
:10395000DF91CF911F910F91FF90EF90DF90CF906B
:103960000895AF92BF92CF92EF92FF920F931F9361
:10397000CF93DF93EC01262F888D998D009709F066
:1039800040C06A3059F41D861C862C898E859F851F
:1039900038E0239F800D911D112441C06D3009F442
:1039A000AAC08E898823C1F03C898C859D8546E01C
:1039B000349F800D911D112448855985481759075A
:1039C0005CF41D861C868E859F8548E0349F800DA3
:1039D000911D11249F878E87EA88FB8808891989A1
:1039E0004E855F856C857D85CC88CE010E94E21571
:1039F0002C898C859D8536E0239F800D911D112497
:103A000042C06A3079F41D861C862C89FC013696EA
:103A1000E4918E859F852E9F800D911D11249F8797
:103A20008E8769C06D3009F466C0FC01349634910C
:103A3000631708F460C03196E491E61708F45BC0A0
:103A4000FC01329665917491422F50E0431B51095D
:103A500037E0349F5001359FB00C1124A60EB71EDD
:103A6000F501329634913196E491332311F0E1114E
:103A70000DC0F5013496E4912C898C859D85E29FDB
:103A8000800D911D11249D878C8735C0F5013596D9
:103A900044915E89552311F16C89E32FF0E0E40F26
:103AA000F11D47FDFA956E9FD0016F9FB00D112457
:103AB0004C855D854A0F5B1FE885F985E417F5079E
:103AC0006CF41D861C86FC013696E4918E859F85DC
:103AD0006E9F800D911D11249F878E87EA88FB8839
:103AE000088919894E855F856C857D85CC88CE01D6
:103AF0000E94E215BECF81E090E0DF91CF911F914F
:103B00000F91FF90EF90CF90BF90AF9008951F92CC
:103B10000F920FB60F9211240BB60F922F933F9373
:103B20008F939F93EF93FF9320911B0430911C047C
:103B300080911D0490911E042817390731F480915B
:103B400031018F7D8093310114C0E0911D04F0910B
:103B50001E04E552FC4F208180911D0490911E04AB
:103B600001968F73992790931E0480931D042093D0
:103B70003601FF91EF919F918F913F912F910F907F
:103B80000BBE0F900FBE0F901F9018951F920F92B3
:103B90000FB60F9211240BB60F922F933F938F9372
:103BA0009F93EF93FF932091A3043091A4048091FD
:103BB000A5049091A6042817390731F48091D1000B
:103BC0008F7D8093D10014C0E091A504F091A604EC
:103BD000ED59FB4F20818091A5049091A604019698
:103BE0008F7399279093A6048093A5042093D60001
:103BF000FF91EF919F918F913F912F910F900BBE6D
:103C00000F900FBE0F901F9018951F920F920FB636
:103C10000F9211240BB60F922F933F938F939F9384
:103C2000EF93FF9320912B0530912C0580912D056A
:103C300090912E052817390731F48091C9008F7DA6
:103C40008093C90014C0E0912D05F0912E05E55137
:103C5000FB4F208180912D0590912E0501968F7349
:103C6000992790932E0580932D052093CE00FF91E8
:103C7000EF919F918F913F912F910F900BBE0F90DD
:103C80000FBE0F901F9018951F920F920FB60F92B4
:103C900011240BB60F922F933F938F939F93EF9323
:103CA000FF932091B3053091B4058091B5059091B3
:103CB000B6052817390731F48091C1008F7D8093B4
:103CC000C10014C0E091B505F091B605ED58FA4F6A
:103CD00020818091B5059091B60501968F73992743
:103CE0009093B6058093B5052093C600FF91EF91A0
:103CF0009F918F913F912F910F900BBE0F900FBE10
:103D00000F901F9018951F920F920FB60F921124CB
:103D10000BB60F922F933F934F935F936F937F93C5
:103D20008F939F93AF93BF93EF93FF938091300155
:103D300082FD07C0809136016FE174E00E946F1C24
:103D400002C080913601FF91EF91BF91AF919F9199
:103D50008F917F916F915F914F913F912F910F9034
:103D60000BBE0F900FBE0F901F9018951F920F92D1
:103D70000FB60F9211240BB60F922F933F934F93D0
:103D80005F936F937F938F939F93AF93BF93EF93C3
:103D9000FF938091D00082FD07C08091D60067EA32
:103DA00074E00E946F1C02C08091D600FF91EF91D9
:103DB000BF91AF919F918F917F916F915F914F9143
:103DC0003F912F910F900BBE0F900FBE0F901F9041
:103DD00018951F920F920FB60F9211240BB60F92E7
:103DE0002F933F934F935F936F937F938F939F9303
:103DF000AF93BF93EF93FF938091C80082FD07C0FC
:103E00008091CE006FE275E00E946F1C02C080912D
:103E1000CE00FF91EF91BF91AF919F918F917F91D4
:103E20006F915F914F913F912F910F900BBE0F902B
:103E30000FBE0F901F9018951F920F920FB60F9202
:103E400011240BB60F922F933F934F935F936F9371
:103E50007F938F939F93AF93BF93EF93FF93809143
:103E6000C00082FD07C08091C60067EB75E00E942C
:103E70006F1C02C08091C600FF91EF91BF91AF917E
:103E80009F918F917F916F915F914F913F912F9172
:103E90000F900BBE0F900FBE0F901F9018956115DD
:103EA000710579F0FB0101900020E9F73197AF012E
:103EB000461B570BDC01ED91FC910280F381E02D54
:103EC000199480E090E008950C944F1FFC018081CC
:103ED00091810C949435EF92FF920F931F93CF939F
:103EE000DF93EC01198218821B821A821D821C82C8
:103EF0001E8261157105B9F17B01FB010190002063
:103F0000E9F731978F01061B170BB8016F5F7F4FE1
:103F100080E090E00E941D36009759F099838883D5
:103F20001B830A832C813D81232B81F4FC011082A9
:103F30000DC088819981009711F00E9494351982F3
:103F400018821D821C821B821A820DC01D830C8365
:103F5000B70188819981DF91CF911F910F91FF90D7
:103F6000EF900C940B37DF91CF911F910F91FF9041
:103F7000EF900895CF93DF9390E0FC01E053F24F70
:103F80002491FC01E05DF14F8491882361F190E080
:103F9000880F991FFC01E059F24FC591D491FC01A3
:103FA000EA5EF14FA591B491611109C09FB7F894F1
:103FB0008881209582238883EC912E230BC0623068
:103FC00061F49FB7F8948881322F309583238883DA
:103FD000EC912E2B2C939FBF06C08FB7F894E881ED
:103FE0002E2B28838FBFDF91CF910895CF92DF9240
:103FF000EF92FF92CF93DF936B017C010E94D42557
:10400000EB01C114D104E104F10479F00E94D4253C
:104010006C1B7D0B683E7340A0F381E0C81AD10889
:10402000E108F108C851DC4FECCFDF91CF91FF9050
:10403000EF90DF90CF900895682F8FEC93E00C9471
:10404000BA22CF93DF936DE08BEF95E00E94D61BF1
:10405000EC016AE08BEF95E00E94D61B8C0F9D1F50
:10406000DF91CF910895CF93DF93BC018BEF95E063
:104070000E944F1FEC010E9421208C0F9D1FDF9199
:10408000CF9108950F931F93CF93DF938C01EB0192
:10409000FC0180819181009799F0428153812C81AC
:1040A0003D814217530750F0688179810E940B3798
:1040B0008C819D81F8019583848313C00E9494357F
:1040C00088819981F801918380838A819B81938380
:1040D00082838C819D8195838483198218821B82BF
:1040E0001A821D821C82DF91CF911F910F9108953A
:1040F0004F925F926F927F928F929F92AF92BF92F8
:10410000CF92DF92EF92FF920F931F93CF93DF93A3
:10411000CDB7DEB7A1970FB6F894DEBF0FBECDBF07
:104120005C016A017B0177FF3CC0DC01ED91FC91F1
:104130000190F081E02D6DE219958C01F094E094EE
:10414000D094C094C11CD11CE11CF11C19A2FE0129
:10415000B1964F013AE0432E512C612C712CC701CE
:10416000B601A30192010E94CB348C2DFAE02F9F5F
:104170008019112491E0891A91088A3014F4805D25
:1041800001C0895CD4018C9369017A01232B242B13
:10419000252B29F7B401C5010E944F1F800F911FE5
:1041A0002AC0942E7D2DC70119A28E010F5D1F4FCD
:1041B0002AE0C22ED12CE12CF12C692DA701960109
:1041C0000E94CB34692DBAE02B9F60191124015055
:1041D00011096A3014F4605D01C0695CF801608304
:1041E000922E732FCA01232B242B252B31F7B801D4
:1041F000C5010E944F1FA1960FB6F894DEBF0FBEF7
:10420000CDBFDF91CF911F910F91FF90EF90DF9085
:10421000CF90BF90AF909F908F907F906F905F9066
:104220004F900895AC01990F660B770B8FE496E0E1
:104230000C947820EF92FF920F931F93CF93DF930C
:104240007C01C0E0D0E000E010E0F70184819581BE
:10425000C817D90790F480819181009729F0FC015B
:10426000EC0FFD1F608101C060E08FE496E00E94CA
:10427000B11C080F191F2196E8CFC801DF91CF911B
:104280001F910F91FF90EF9008959091CE0391119F
:10429000FCCF91E09093CE034093CD032FEF20937A
:1042A000CC031092CB03260F2093CA039093C9032B
:1042B0009091C903880F892B8093C9038091C8030B
:1042C000813061F41092C8038091C9038093BB00D0
:1042D0008091BC0083FDF8CF85EC01C085EE809312
:1042E000BC008091CE038130E1F38091CB0386172F
:1042F00010F46091CB03A8EAB3E0E8E8F3E080E0D3
:10430000861721F09D9191938F5FFACF0895282F02
:1043100030918703313208F04AC08091CE03811179
:10432000FCCF9091860342E04093CE032093CD03CF
:104330002FEF2093CC031092CB033093CA03E6E611
:10434000F3E0A8EAB3E020E0321721F041914D9369
:104350002F5FFACF1092C9032091C903990F922BB6
:104360009093C9039091C803913061F41092C803EF
:104370009091C9039093BB009091BC0093FDF8CF3E
:1043800095EC01C095EE9093BC009091CE039230D5
:10439000E1F39091CC039F3F79F08091CC03803280
:1043A00041F08091CC03803331F084E005C081E09E
:1043B00003C082E001C083E010926503109287037E
:1043C00010926403089590E0FC01E657F24F449187
:1043D000FC01E053F24F2491FC01E05DF14F949118
:1043E000992309F462C0442309F451C050E0FA0152
:1043F0003197E131F10508F04AC08827EE58FF4FA8
:104400008F4F0C946439809180008F7703C0809126
:1044100080008F7D809380003AC084B58F7702C082
:1044200084B58F7D84BD33C08091B0008F7703C089
:104430008091B0008F7D8093B00029C08091900062
:104440008F7707C0809190008F7D03C0809190008E
:10445000877F809390001BC08091A0008F7707C05A
:104460008091A0008F7D03C08091A000877F809302
:10447000A0000DC0809120018F7707C0809120019E
:104480008F7D03C080912001877F80932001E92FD9
:10449000F0E0EE0FFF1FEA5EF14FA591B4918FB7E8
:1044A000F894EC91E22BEC938FBF089581E0809318
:1044B0006303E1E0F1E08081886780839D9A8DB19C
:1044C00088638DB9809A819A829A839A849A8B9A0A
:1044D000889A899A8C9A62E370E080E090E00E946A
:1044E000F61F8C9864E670E080E090E00E94F61F72
:1044F0008C9A64E670E080E090E00E94F61F60E035
:1045000070E080EB90E00C94040980911A0390E035
:1045100020911B03821B91090895CF92DF92EF92A5
:10452000FF920F931F93CF93DF937C01CB018A01FE
:1045300020916403222389F0EB016B01C40ED51E88
:10454000CC15DD0569F06991D701ED91FC910190E1
:10455000F081E02DC7011995F3CF642F0E942E1929
:10456000C801DF91CF911F910F91FF90EF90DF90E5
:10457000CF900895CF93DF931F92CDB7DEB76983B5
:10458000209164032223D1F020918703203240F050
:1045900021E030E0FC013383228380E090E015C00D
:1045A00080916503E82FF0E0EA59FC4F99819083F0
:1045B0008F5F809365038093870305C061E0CE0120
:1045C00001960E942E1981E090E00F90DF91CF912B
:1045D0000895FC01848D958D292F22952F7030E050
:1045E00021703327A9014627BA0171A360A380FF78
:1045F0000CC0672B19F480E290E002C081E290E0E9
:1046000040E050E060E00C94AD07868D978D8339D3
:1046100057E79507E1F040F4843541E0940779F0DD
:1046200080329445C1F413C0863223E9920779F0B1
:10463000893045EB940759F08532924961F4660F51
:10464000771F660F771F636187E090E006C06260A6
:1046500081E094E002C081E690E00C9404090F939D
:104660001F93CF93DF93EC018B0110161106B4F466
:10467000FE01859194912496FE0132976591749183
:104680008F3F2FEF920729F480E090E00E94F61F01
:1046900002C00E94040904501109E7CFDF91CF91B5
:1046A0001F910F910895DF92EF92FF920F931F9346
:1046B000CF93DF93CDB7DEB768970FB6F894DEBF20
:1046C0000FBECDBF7C018B011016110654F5F7010A
:1046D00084913196D490F2E0EF0EF11C8F3741F4C3
:1046E0006D2D70E080E090E00E94F61FD12C13C089
:1046F0002E2DDE011196F701AD019E2F921B9D1507
:1047000020F494919D933196F8CFED0CF11C6D2D12
:1047100090E00E94AD07ED2DF0E032960E1B1F0BCE
:10472000D3CF68960FB6F894DEBF0FBECDBFDF9132
:10473000CF911F910F91FF90EF90DF9008958F928E
:104740009F92AF92BF92CF92DF92EF92FF920F9320
:104750001F93CF93DF9300D01F92CDB7DEB77C01BC
:104760004B015A016901FC01868D978D8732F3E96F
:104770009F0799F4F7018589823031F4F0E2AF0E9A
:10478000B11C005E1F4F1EC08330E1F420E2820E98
:10479000911C80E2C80ED11C15C08632954191F45F
:1047A000F701858980FF0EC0C801841B950B19F4A1
:1047B0000F5F1F4F07C06217730721F46B01C80E0C
:1047C000D91E8A01F701848D80FF1AC084A59982C1
:1047D0008A82DB82CC82AE014F5F5F4F64E090E063
:1047E0000E94AD07F70180A9B982AA821B830C83BE
:1047F000AE014F5F5F4F64E090E00E94AD073CC0A8
:10480000B401F70186A197A10E940409B501F7013F
:1048100080A591A50E940409C814D90419F40A15A9
:104820001B0551F1F701848D85FF0EC0858980FF3E
:1048300006C0102F0027A02AB12A850105C0DC2C54
:10484000CC248C289D286401B401F70184A595A58A
:104850000E940409B501F70180A991A90E940409E9
:10486000B601F70186A597A50E940409B801F701D2
:1048700082A993A90E9404090F900F900F900F90A6
:10488000DF91CF911F910F91FF90EF90DF90CF902C
:10489000BF90AF909F908F900895AF92BF92CF92AC
:1048A000DF92EF92FF920F931F93CF93DF93EC0170
:1048B0008091E906882349F0C7018F719927880FF5
:1048C000991FE1ECEE22E82AF92A37FF05C0620FB2
:1048D000731F319521953109260F371F77FF02C0CD
:1048E00060E070E0E885F9852E173F070CF4F901C8
:1048F0005F01A61AB70A17FF05C0400F511F119597
:1049000001951109CA01800F911F57FF02C040E0B5
:1049100050E00A851B85801791070CF48C01680113
:10492000C41AD50A015011099F0121503109CE0145
:104930000E949F238B988A988AA59BA520910201AB
:10494000277820930201A5982EB1277C2EB960917B
:104950000201292F3327A9014370552705E0440F91
:10496000551F0A95E1F7462B409302016EB1A9014C
:104970004C705527440F551F440F551F462B4EB9F9
:1049800064B3A90140715527440F551F462B44BB02
:104990006EB1A90140725527559547955595479594
:1049A000462B4EB940910201207C3327A3E0359578
:1049B0002795AA95E1F7242B209302018998899ADB
:1049C00020910201277820930201A5982EB1277C1F
:1049D0002EB9409102019C0123703327B5E0220FCC
:1049E000331FBA95E1F7242B209302014EB19C01AD
:1049F0002C703327220F331F220F331F242B2EB985
:104A000044B39C0120713327220F331F242B24BB76
:104A10004EB19C0120723327359527953595279502
:104A2000242B2EB920910201807C992763E0959573
:104A300087956A95E1F7822B809302018998899A7C
:104A40008A9AAC14BD042CF49A2D8B2D5601C92ED4
:104A5000D82E8F2D99279C01237033272295220F62
:104A6000207EAC014C705527342F330F330FAC012F
:104A700040715527440FBC017695679576956795EB
:104A8000562F587063E0969587956A95E1F788717F
:104A9000B70163707727962F9295990F907EB70193
:104AA0006C707727660F660FF701E071FF277E2F86
:104AB000770FD701B695A795B695A795A870F7017A
:104AC000B3E0F695E795BA95E1F71E2F18711C141F
:104AD0001D040CF043C0F501B0910201B778B0930A
:104AE0000201A598BEB1B77CBEB9B0910201B22B4C
:104AF000B0930201BEB1B32BBEB9B4B3B42BB4BBF7
:104B0000BEB1B52BBEB9B0910201B82BB093020172
:104B10008998899AB0910201B778B0930201A5985B
:104B2000BEB1B77CBEB9B0910201B92BB0930201FE
:104B3000BEB1B62BBEB9B4B3B72BB4BBBEB1BA2BA2
:104B4000BEB9B0910201B12BB09302018998899A44
:104B5000319711F6E1E0CE1AD108B9CF8B9A8C8D3E
:104B600080FF08C08E8D9F8D8632954191F48D898E
:104B700080FF0FC00A851B850150110928853985E2
:104B80002150310940E050E060E070E0CE010E9429
:104B90009F23DF91CF911F910F91FF90EF90DF90B6
:104BA000CF90BF90AF9008953FB7F8948091F006F2
:104BB0009091F106A091F206B091F30626B5A89B5C
:104BC00005C02F3F19F00196A11DB11D3FBFBA2F9F
:104BD000A92F982F8827820F911DA11DB11DBC01FF
:104BE000CD0142E0660F771F881F991F4A95D1F7C4
:104BF00008951F920F920FB60F9211242F933F9397
:104C00008F939F93AF93BF938091EB069091EC06A7
:104C1000A091ED06B091EE063091EF0623E0230F50
:104C20002D3720F40196A11DB11D05C026E8230FE4
:104C30000296A11DB11D2093EF068093EB06909381
:104C4000EC06A093ED06B093EE068091F0069091ED
:104C5000F106A091F206B091F3060196A11DB11DD7
:104C60008093F0069093F106A093F206B093F306BA
:104C7000BF91AF919F918F913F912F910F900FBE58
:104C80000F901F901895CF93DF93CDB7DEB7E797BE
:104C90000FB6F894DEBF0FBECDBF789484B58260A6
:104CA00084BD84B5816084BD85B5826085BD85B5D0
:104CB000816085BD80916E00816080936E0010924E
:104CC00081008091810082608093810080918100C9
:104CD000816080938100809180008160809380005A
:104CE0008091B10084608093B1008091B0008160B8
:104CF0008093B000809191008260809391008091B8
:104D000091008160809391008091900081608093F8
:104D100090008091A10082608093A1008091A10009
:104D200081608093A1008091A00081608093A000A9
:104D30008091210182608093210180912101816015
:104D400080932101809120018160809320018091D6
:104D50007A00846080937A0080917A0082608093E8
:104D60007A0080917A00816080937A0080917A0045
:104D7000806880937A001092C100E0910F06F09154
:104D8000100681E090E09C0100901B0602C0220FFB
:104D9000331F0A94E2F72083E0910B06F0910C0692
:104DA0001082E0910D06F0910E062FEC20831092F8
:104DB0001C06E0911106F091120640819C010090C2
:104DC000170602C0220F331F0A94E2F7242B208318
:104DD000E0911106F091120640819C0100901806A6
:104DE00002C0220F331F0A94E2F7242B2083E091A4
:104DF0001106F091120640819C010090190602C034
:104E0000220F331F0A94E2F7242B2083E09111062E
:104E1000F0911206208100901A0602C0880F991F97
:104E20000A94E2F780958223808360E080E090E03E
:104E30000E944813883024E5920709F4D4C08032D8
:104E400034E5930709F4D2C08938994809F4D1C0F0
:104E500060E087E690E00E9448138734974409F4A5
:104E6000CBC081EA90E00E948914613081E6780726
:104E700009F4C5C06F3F7F4F19F406E215E1F3C096
:104E80008FEB90E00E9457146735A3E87A0709F486
:104E9000B9C06138B4E97B0709F4B7C0613125E1D5
:104EA000720709F4B5C0603235E1730709F4B3C085
:104EB000663245E1740709F3613855E1750709F475
:104EC000ADC06115744109F4ACC084ED90E00E945E
:104ED00089146031734509F4A7C087ED90E00E9402
:104EE00089146133704809F4A2C08FEE90E00E94EB
:104EF00057146732734909F49DC08EEF90E00E9409
:104F00008914BB27A92F982F872F8335904209F446
:104F100094C084E090E00E9489149B01811123C019
:104F20006115704801F58091060290910702A091E9
:104F3000080289839A83AB83AE014F5F5F4F63E0C2
:104F400089EB90E00E94AD0760E080ED90E00E9468
:104F50004813893929F08039C9F400E910E983C080
:104F600009E910E080C0263255E1350709F485CF04
:104F7000203F89E8380709F463C0223595E83907EE
:104F800009F461C021313C4A09F460C083ED90E02E
:104F90000E948914BB27A92F982F872F8336914908
:104FA00009F457C083ED90E00E9489143DE6370F65
:104FB000323008F451C0783909F44EC0773709F41B
:104FC0004BC0763109F448C0633D710509F446C011
:104FD000633D734D09F445C060E080E090E00E94BD
:104FE00048138C0140C008E014E53DC000E214E520
:104FF0003AC009E812E137C007E413E834C003E619
:1050000019E131C007E513E82EC001E814E92BC00F
:1050100001E115E128C000E215E125C001E815E134
:1050200022C004E118E61FC000E113E51CC001E343
:1050300010E819C007E213E916C003E510E213C037
:1050400005E317E710C009E817E70DC001E11CEA06
:105050000AC003E611E907C08B0105C003ED10E0AB
:1050600002C003ED13ED0E94562210926A061092C0
:10507000690610936E0600936D06073543E8140722
:1050800009F499C108F0A5C0033580E2180709F4B6
:10509000F3C108F047C00131A5E11A0709F42CC19A
:1050A000B0F40939110509F49EC138F40130110535
:1050B00009F04DC280E091E1B0C1043521E0120752
:1050C00009F40FC10530154109F4A5C140C20632EB
:1050D00045E1140709F428C180F40032154109F0B4
:1050E00036C283E194E090936C0680936B06E6E011
:1050F000EE2EF12C0BE813E030C2013895E11907D0
:1051000009F4CFC10230164109F021C283E094E0D6
:1051100090936C0680936B0606E0E02EF12C04EE73
:1051200012E01BC20431B8E61B0709F421C108F5DF
:10513000003133E5130709F403C178F4053315444E
:1051400009F005C280E090E190936C0680936B06B5
:105150006CE970E088E397E0E4C1083084E5180763
:1051600009F459C10930184609F0F1C182E091E112
:1051700062C10339A7E71A0709F4D6C1A8F40338B6
:1051800027E7120709F40CC10938174709F0DFC1F6
:1051900083E194E090936C0680936B0641E4E42EE7
:1051A000F12C09E313E0D9C1063947E7140709F4E4
:1051B00093C10133104809F0CAC183E194E190938F
:1051C0006C0680936B0632E1E32EF12C07E213E0CC
:1051D000C4C1083383E9180709F454C170F50732D4
:1051E000A3E91A0709F430C1B8F4023023E9120721
:1051F00009F445C138F40039104909F0A8C183E128
:1052000094E1DBC0003253E9150709F404C105320B
:10521000134909F40BC19BC1093293E9190709F439
:1052200034C108F403C10133B3E91B0709F401C118
:105230000533134909F4FDC08AC1093834E913075D
:10524000C8F5073844E9140708F049C1013854E9A2
:10525000150709F429C190F40054134902301105CF
:1052600008F075C183E194E090936C0680936B061F
:10527000B5E6EB2EF12C0CE712E06FC106381449AD
:1052800009F065C183E094E090936C0680936B060F
:1052900080EE91E0909356068093550680E491E06D
:1052A0009093540680935306FBE3EF2EF12C0CEF02
:1052B00011E053C10530A5EB1A0709F428C138F4F1
:1052C00001311C4A09F043C183E194E1E0C0093097
:1052D00035EB130709F428C10530154C09F417C143
:1052E00036C182E090E190936C0680936B066CE986
:1052F00070E084ED97E015C183E090E090936C0638
:1053000080936B0680EE91E090935606809355064D
:1053100080E491E09093540680935306F3E0EF2EDF
:10532000F12C01E913E019C183E194E090936C063C
:1053300080936B067CE0E72EF12C0FE713E00DC1A4
:1053400083E19EE090936C0680936B0680EE91E083
:10535000909356068093550680E491E0909354060E
:105360008093530662E0E62EF12C0DE713E0F5C0C2
:1053700083E094E090936C0680936B0680EE91E05E
:10538000909356068093550680E491E090935406DE
:105390008093530653E0E52EF12C0AE713E0DDC0BD
:1053A00082E091E190936C0680936B0660E970E077
:1053B00088EA96E0B6C083E094E190936C0680930F
:1053C0006B0680EE91E0909356068093550680E43C
:1053D00091E0909354068093530622E0E22EF12C44
:1053E00005E213E0BAC083E194E190936C068093E8
:1053F0006B0680EE91E0909356068093550680E40C
:1054000091E090935406809353069DE1E92EF12C90
:1054100008E013E0A2C084E090E190936C068093D2
:105420006B0668ED70E080ED95E07BC080E091E177
:1054300002C080E090E190936C0680936B066CEC68
:1054400070E084E095E06DC083E094E090936C069A
:1054500080936B0680E991E0909356068093550601
:1054600080EF90E090935406809353068EE1E82EEF
:10547000F12C0AEE12E071C087E194E108C083E0EC
:1054800094E005C083E194E002C083E096E190934C
:105490006C0680936B0613E0E12EF12C01EE12E016
:1054A0005CC083E194E002C087E094E090936C06D6
:1054B00080936B0680EE91E090935606809355069C
:1054C00080E491E09093540680935306A5E4EA2E7D
:1054D000F12C07E312E041C083E094E002C083E1D5
:1054E00094E090936C0680936B0680EE91E090932D
:1054F00056068093550680E491E09093540680937D
:105500005306EBE2EE2EF12C01ED11E026C088E00F
:1055100090E190936C0680936B0660EB70E084E5FD
:1055200094E00E942F2317C080E090E190936C06D6
:1055300080936B0660EC70E084E993E00E942F2377
:1055400080E991E0909356068093550604C010922E
:1055500054061092530600E010E020916C06822F52
:1055600082958F7090E08170992790937006809358
:105570006F060115110581F069E070E088EC91E09B
:105580000E945323B701C8010E94532366E070E0D4
:1055900082EC91E00E94532360E08FE496E00E9449
:1055A000710B60E08FE496E00E94E92280916D0625
:1055B00090916E068838944909F068C21092E90605
:1055C00020EE3FEF40E050E060E070E08FE496E0D6
:1055D0000E94F709E0907906F0907A068091EA0639
:1055E000811107C080916B0680FF03C07EE2E72E29
:1055F000F12C80916D0690916E068230964119F4DF
:105600006EE2E62EF12C00E010E020E030E040E019
:1056100050E060E070E08FE496E00E949F2380916C
:105620006B0680FD10C060E070E08091750690917F
:1056300076060E94040960E070E080917706909100
:1056400078060E9404098B988A98809102018778D5
:1056500080930201A5988EB1877C8EB9409102019A
:105660008F2D99279C012370332775E0220F331F5C
:105670007A95E1F7242B209302014EB19C012C7006
:105680003327220F331F220F331F242B2EB944B38D
:105690009C0120713327220F331F242B24BB4EB1D2
:1056A0009C01207233273595279535952795242B16
:1056B0002EB920910201807C9927B3E095958795BA
:1056C000BA95E1F7822B809302018998899A80919B
:1056D0000201877880930201A5988EB1877C8EB9EC
:1056E00020910201C7018370992715E0880F991F47
:1056F0001A95E1F7822B809302012EB1C7018C70BD
:105700009927880F991F880F991F822B8EB924B370
:10571000C70180719927880F991F822B84BB2EB1F6
:10572000C701807299279595879595958795822BC6
:105730008EB920910201C701807C992753E095958D
:1057400087955A95E1F7822B809302018998899A6F
:105750008A9A809101018778809301019D988DB18B
:10576000877C8DB9E0916B06F0916C0680916D0697
:1057700090916E06E6FD1EC0889A88988898889851
:10578000209100012CB122B32CB120910001889A04
:10579000E0FD10C08938B2E19B0761F0889A8898D3
:1057A00088988898209100012CB122B32CB12091C7
:1057B0000001889A8131954161F4889A8898889887
:1057C0008898809100018CB182B38CB180910001E6
:1057D000889ADF01A470BB27889A8898889888984F
:1057E000E4FF8FC0309100018CB192B35CB1409165
:1057F00000013076232F2295269527708073869599
:105800008695382F322B9072892F90E09595879549
:10581000832B352F3870330F330F832B342F387190
:1058200048E0349F90011124382F322B889A889AAF
:10583000889888988898209100014CB192B36CB1F7
:105840008091000120762295269527704073469519
:105850004695E42EE22A9072492F50E055954795DF
:105860004E29962F9870E92EEE0CEE0C4E29887179
:1058700058E0859F70011124742F7E29889A889A98
:10588000889888988898409100019CB182B36CB147
:10589000209100014076542F529556955770492F0C
:1058A000407346954695452B807290E09595879577
:1058B000842B462F4870440F440F482B287158E022
:1058C000259FC0011124942F982B889A872F8C7FB5
:1058D000AB2B59F0987FA8E08A9F70011124F92A18
:1058E000369536953695E32A7EC0387FB8E08B9F93
:1058F00070011124F32A892F869586958695E82ACA
:1059000072C070910001CCB092B3DCB06091000124
:10591000889A889A889888988898409100012CB134
:1059200002B33CB180910001407650E0F5E055951E
:105930004795FA95E1F72073E22EF12CF594E79460
:10594000F594E7944E295F29007210E015950795AC
:10595000402B512B3870232F30E0220F331F220FA2
:10596000331F242B352B887148E0849F700111244C
:105970002E293F29889A7076472F42954695477081
:105980007C2D707376957695742B9072892F90E0AC
:1059900095958795872B9D2D9870D92EDD0CDD0C64
:1059A000D82A862F887158E0859FB00111246D296F
:1059B0007901F62AE3FF03C0FE24EF24FE24AB2B7B
:1059C00091F0B701607E7770C701892F992786957E
:1059D00086958695682B792BFE2CEE24FF0CFF0C08
:1059E000FF0CE62AF72A8091E906882399F0B7018F
:1059F000607CA70144275470F5E056954795FA95C9
:105A0000E1F78FE3E822FF24F694E794E42AF52AED
:105A1000E62AF72A889A8B9A8091010188678093F9
:105A200001019D9A8DB188638DB9E0FD14C000918C
:105A3000590610915A0601501109209157063091CC
:105A400058062150310940E050E060E070E08FE4FA
:105A500096E00E949F239FE1E9169FEFF906B1F4BB
:105A600086E08983AE014F5F5F4F61E08AE390E09B
:105A70000E94AD0780916B0690916C068F7E90938B
:105A80006C0680936B0681E08093E90660E08FE40A
:105A900096E00E94710B1092650610921B03109203
:105AA0001A0310926503109287031092CE0311E03F
:105AB0001093CD031092C80384E10E94E32185E195
:105AC0000E94E3218091B9008E7F8093B90080917C
:105AD000B9008D7F8093B90088E48093B80085E495
